:020000040000FA
:060000000A128A11FC2F18
:100EB8008316031311081F39031D632F642F5C2F3A
:100EC8001419672F682F5C2F0800831603138715E2
:100ED800071609309300803094009101283083125E
:100EE80003139400080083160313111511197D2F9D
:100EF8007E2F7A2F83128C1D822F832F7E2F8C11A9
:100F080008000A128A115C270A128A118316031331
:100F180011141118902F912F8D2F83128C1D952F3E
:100F2800962F912F8C110800F0000A128A115C2765
:100F38000A128A117008831203139300831603138D
:100F480014080539031DA92FAA2FA22F08000A1279
:100F58008A115C270A128A118316031391159119B5
:100F6800B62FB72FB32F141CBA2FBB2FB72F83124E
:100F78000313130808000A128A1185270A128A1116
:100F880031300A128A1198270A128A110A128A1114
:100F9800AB270A128A118312031386000A128A11D8
:100FA80077270A128A110800831603178901831606
:100FB800031386018312031386010A128A11692713
:100FC8000A128A110A128A11BF270A128A113330AB
:100FD800F300BB30F200DF30F100F10BF12FF20B20
:100FE800F12FF30BF12FF82FE62F0A128A110028A0
:080FF80083010A128A11D82FAF
:04400E00F23FFF3F3F
:00000001FF
