:020000040000FA
:100000000A128A11F92F00308A000408840A820734
:1000100000344D3431342C34503431342C34613488
:100020000A3400344D3432342C34503431342C34CE
:1000300061340A3400344D3433342C345034313488
:100040002C3461340A3400344D3431342C3450347F
:1000500032342C3461340A3400344D3432342C348C
:10006000503432342C3461340A3400344D34333457
:100070002C34503432342C3461340A3400344D344E
:1000800031342C34503431342C3462340A3400345A
:100090004D3432342C34503431342C3462340A34FC
:1000A00000344D3433342C34503431342C346234F5
:1000B0000A3400344D3431342C34503432342C343E
:1000C00062340A3400344D3432342C3450343234F7
:1000D0002C3462340A3400344D3433342C345034EC
:1000E00032342C3462340A3400344D3431342C34FC
:1000F000503431342C3467340A3400344D343234C3
:100100002C34503431342C3467340A3400344D34B8
:1001100033342C34503431342C3467340A340034C2
:100120004D3431342C34503432342C3467340A3466
:1001300000344D3432342C34503432342C3467345F
:100140000A3400344D3433342C34503432342C34AB
:1001500067340A3400344D3431342C345034313463
:100160002C3472340A3400344D3432342C3450344C
:1001700031342C3472340A3400344D3433342C345A
:10018000503431342C3472340A3400344D34313428
:100190002C34503432342C3472340A3400344D341C
:1001A00032342C34503432342C3472340A34003427
:1001B0004D3433342C34503432342C3472340A34C9
:0201C000003409
:100B5C00F000700883120313990083160313981C7A
:100B6C00B82DB92DB32D0800F200CC2D72088400DD
:100B7C000A128A1103200A128A110A128A11AE254E
:100B8C000A128A110130F1007108F2077208840010
:100B9C000A128A1103200A128A11003A031DD72D5A
:100BAC00D82DBC2D0800831603138614061183124E
:100BBC0003132908F3002808F2002708F10026087F
:100BCC00F0000130F7003130F6002D30F500003028
:100BDC00F4000A128A1124260A128A117308FC00E6
:100BEC007208FB007108FA007008F9000030F3007D
:100BFC000030F2000030F1004030F0007C08F700CB
:100C0C007B08F6007A08F5007908F4000A128A11BC
:100C1C0024260A128A117008FF3E831603139900CA
:100C2C0083120313981783160313181218139816AC
:100C3C008312031318131816981708008312031342
:100C4C00A101F31F2A2E2B2E382EF009F109F209DF
:100C5C00F309F00A0319F10A0319F20A0319F30A4A
:100C6C00A101A10AF71F3B2E3C2E4B2EF409F509CE
:100C7C00F609F709F40A0319F50A0319F60A031918
:100C8C00F70A0130F8007808A1060030A500003002
:100C9C00A4000030A3000030A20073087204710499
:100CAC00700403195A2E5B2EA82EA001A00A6B2EDD
:100CBC000130F8000310F00DF10DF20DF30DF80BEF
:100CCC00602E0130F8007808A007F31F6E2E6F2EEF
:100CDC005E2E0130F8000310A20DA30DA40DA50D7E
:100CEC00F80B712E73087702031D862E720876029C
:100CFC00031D862E71087502031D862E7008740262
:100D0C00031C892E8A2E992E7008F4027108031C7C
:100D1C00710FF5027208031C720FF6027308031CA4
:100D2C00730FF702221401300310F30CF20CF10CC8
:100D3C00F00CFF3E031D9A2E0130A002031DA72EBE
:100D4C00A82E6F2E21080319AC2EAD2EB82EA20999
:100D5C00A309A409A509A20A0319A30A0319A40A41
:100D6C000319A50A2508F3002408F2002308F10052
:100D7C002208F0000800831603178901FF30831640
:100D8C0003138600003083120313A9000030A8005F
:100D9C002530A7008030A6000A128A11D9250A1224
:100DAC008A11831203130608AA002A08FD001A30C0
:100DBC0083120313AC005E30AB006D30AA00AA0B9B
:100DCC00E52EAB0BE52EAC0BE52EEC2E9C2FA330B9
:100DDC000A128A11BA250A128A11D72E6D300A12FC
:100DEC008A11BA250A128A11D72E37300A128A11A3
:100DFC00BA250A128A11D72E01300A128A11BA2585
:100E0C000A128A11D72EBE300A128A11BA250A127A
:100E1C008A11D72E88300A128A11BA250A128A1121
:100E2C00D72E52300A128A11BA250A128A11D72EDD
:100E3C001C300A128A11BA250A128A11D72EAC302C
:100E4C000A128A11BA250A128A11D72E76300A1282
:100E5C008A11BA250A128A11D72E40300A128A1129
:100E6C00BA250A128A11D72E0A300A128A11BA250B
:100E7C000A128A11D72EC7300A128A11BA250A1201
:100E8C008A11D72E91300A128A11BA250A128A11A8
:100E9C00D72E5B300A128A11BA250A128A11D72E64
:100EAC0025300A128A11BA250A128A11D72EB530AA
:100EBC000A128A11BA250A128A11D72E7F300A1209
:100ECC008A11BA250A128A11D72E49300A128A11B0
:100EDC00BA250A128A11D72E13300A128A11BA2592
:100EEC000A128A11D72ED0300A128A11BA250A1288
:100EFC008A11D72E9A300A128A11BA250A128A112F
:100F0C00D72E64300A128A11BA250A128A11D72EEA
:100F1C0064300A128A11BA250A128A11D72E2E3081
:100F2C000A128A11BA250A128A11D72E7D08831249
:100F3C000313AA00AB012B08003A0319A62FD72ED6
:100F4C002A08003A0319D72E013A0319ED2E033A59
:100F5C000319F42E013A0319FB2E073A0319022F39
:100F6C00013A0319092F033A0319102F013A0319F7
:100F7C00172F0F3A03191E2F013A0319252F033A85
:100F8C0003192C2F013A0319332F073A03193A2F5F
:100F9C00013A0319412F033A0319482F013A031957
:100FAC004F2F1F3A0319562F013A03195D2F033A9D
:100FBC000319642F013A03196B2F073A0319722F87
:100FCC00013A0319792F033A0319802F013A0319B7
:100FDC00872F0F3A03198E2F013A0319952FD72E0D
:100FEC000A128A11002883120313AD0183010A121D
:040FFC008A11C12E67
:04400E00F23FFF3F3F
:00000001FF
