S010000046697273744932632E737265632E
S11300000C942A000C9434000C9434000C943400A6
S11300100C9434000C9434000C9434000C9434008C
S11300200C9434000C9434000C9434000C9434007C
S11300300C9434000C9434000C9434000C9434006C
S11300400C9434000C9434000C9434000C9434005C
S11300500C94340011241FBECFE5D4E0DEBFCDBF25
S11300600E9464000C9474000C94000084E986BF20
S113007006B604FCFDCF089584EC86BF06B607FEE1
S1130080FDCF83B1089594EA96BF06B607FEFDCF6F
S113009091B1987F983071F483B984E886BF06B62D
S11300A007FEFDCF81B1887F883131F0803231F491
S11300B082E0089580E0089581E0089583E0089542
S11300C011B88FEF80B9089514BA11BA12BA0E9408
S11300D0600081EA0E9443000E943C0082BB0E94AF
S10F00E0360080E090E00895F894FFCF13
S9030000FC
