:020000040000FA
:060000000A128A11122809
:10000800FE00030E83120313AF000408B0000A08B1
:10001800B1007F08B2000A128A112A280A128A112E
:100028001528FC0183120313CD01CE01CF01D001A5
:10003800D101D201D301D401D501D601D701D8010C
:10004800D901DA0183010A128A11622B8B136130FC
:100058000A128A11D2250A128A1151300A128A11FB
:10006800EF240A128A1151300A128A112B240A121B
:100078008A110F30FF007F08F000831203134D0828
:100088000A128A11C1240A128A1170087104031D08
:100098004E284F2833291230FF007F08F0008312C2
:1000A80003134E080A128A11C1240A128A11700811
:1000B8007104031D60286128CB28831203134F089D
:1000C8008400613083130006031D6B286C28AF2859
:1000D8000A128A1196250A128A1131300A128A11D7
:1000E80083250A128A110A128A116F250A128A11A7
:1000F800FF007F0883120313D0000A128A11E72534
:100108000A128A110A128A116F250A128A11FF002F
:100118007F0883120313D0000A128A11B7250A1226
:100128008A110B30FF007F0883120313A0005008C8
:10013800AD00AE012D08A1002E08A20051300A1210
:100148008A1142210A128A1151300A128A1158253D
:100158000A128A1133290A128A1196250A128A115B
:1001680030300A128A1183250A128A118312031366
:100178004F088400831300080A128A1183250A1283
:100188008A110A128A11B7250A128A1133291530E1
:10019800FF007F08F000831203134E080A128A1129
:1001A800C1240A128A1170087104031DDC28DD2895
:1001B8003329831203134F08840061308313000628
:1001C800031DE728E8281C290A128A1196250A1215
:1001D8008A1133300A128A1183250A128A110A12E7
:1001E8008A116F250A128A11FF007F0883120313F0
:1001F800D0000A128A11B7250A128A110B30FF00A3
:100208007F0883120313A0005008AD00AE012D082B
:10021800A1002E08A20051300A128A1142210A12A6
:100228008A1151300A128A1158250A128A11332963
:100238000A128A1196250A128A1132300A128A1174
:1002480083250A128A11831203134F08840083132B
:1002580000080A128A1183250A128A11C5288312F6
:1002680003138C128B173208FF0031088A003008FC
:1002780084002F0E8300FE0E7E0E090083120313E6
:10028800AB002130FF007F08A600132A25302C067A
:1002980003194F2950295C292C08FF002B088400DA
:1002A8007F08831380000130FF007F08AB07132A03
:1002B800A7010130A007FF30200784000A128A1125
:1002C80039250A128A11AC00A300A4012408003AB7
:1002D80003196F29132A2308003A0319252A643AB7
:1002E80003197A290D3A03197A29132A2608840052
:1002F80083130008A900840A0008AA000230FF003E
:100308007F08A607AA1F89298A2993290330FF0095
:100318007F08A704A909AA09A90A0319AA0AAC010E
:10032800AC0A2C08A3002307013E84000A128A1194
:1003380039250A128A11A4000A128A1139250A12CB
:100348008A11A50025082A02031DAC2924082902C0
:100358000318AF29B029B129BB290130FF007F0854
:10036800AC0705302C06031DBA29BB299529270897
:1003780003390319C029C129CC292D30FF002B08C6
:1003880084007F08831380000130FF007F08AB07DB
:100398002C08FF007F08A8000A2A0A30F70000305E
:1003A800F8002808A3002307013E84000A128A11D6
:1003B80039250A128A11F0000A128A1139250A12FF
:1003C8008A11F1002A08F3002908F2000A128A119A
:1003D800AD230A128A117108FA007008F9000A128E
:1003E8008A11F1230A128A117708303EFF007F082C
:1003F80083120313AC002C08FF002B0884007F082D
:10040800831380000130FF007F08AB07FF30FF0037
:100418007F08A807280A031D122A132AD1290130A8
:10042800A007FF30200784000A128A1139250A1212
:100438008A11FF007F08AC002C08031D242A252AF6
:100448004A292B08840083138001080083120313B0
:10045800BD01B61F302A312A3E2AB309B409B509AD
:10046800B609B30A0319B40A0319B50A0319B60A77
:10047800BD01BD0ABA1F412A422A512AB709B80943
:10048800B909BA09B70A0319B80A0319B90A031945
:10049800BA0A0130FF007F08BD060030C1000030F5
:1004A800C0000030BF000030BE00360835043404F8
:1004B80033040319602A612AAE2ABC01BC0A712AD6
:1004C8000130BB000310B30DB40DB50DB60DBB0B59
:1004D800662A0130FF007F08BC07B61F742A752AF8
:1004E800642A0130BB000310BE0DBF0DC00DC10D45
:1004F800BB0B772A36083A02031D8C2A35083902C5
:10050800031D8C2A34083802031D8C2A330837024D
:10051800031C8F2A902A9F2A3308B7023408031C29
:10052800340FB8023508031C350FB9023608031C0E
:10053800360FBA023E1401300310B60CB50CB40CD9
:10054800B30CFF3E031DA02A0130BC02031DAD2AD7
:10055800AE2A752A3D080319B22AB32ABE2ABE0953
:10056800BF09C009C109BE0A0319BF0A0319C00A95
:100578000319C10A4108B6004008B5003F08B40095
:100588003E08B3000800831603138614061183126D
:1005980003134508B6004408B5004308B4004208F0
:1005A800B3000130BA003130B9002D30B800003046
:1005B800B7000A128A112A220A128A118312031317
:1005C8003608C9003508C8003408C7003308C60013
:1005D8000030B6000030B5000030B4004030B30041
:1005E8004908BA004808B9004708B8004608B700E3
:1005F8000A128A112A220A128A1183120313330853
:10060800FF3E83160313990083120313981783166A
:1006180003131812181398168312031318131816B5
:1006280098170800FB007B08031D1B2B1C2B202B95
:100638007C08FF007F08FB007B08031D242B252B6B
:10064800272B0030612B7A08FF007F08F3007B0816
:100658000A128A1163240A128A117308FF007F089C
:10066800FB077B08840083130008031D3C2B3D2BEC
:10067800402BFC010030612B7A08FF007F08F30053
:100688007B080A128A1192240A128A1173087B07BE
:10069800FF007F08FC007C0884008313000803190E
:1006A800562B572B5F2B7C08840080010130FF00FC
:1006B8007F08FC07602BFC017B08080083160313E6
:1006C800880183120313880183160313860183129A
:1006D800031386010030C5000030C4002530C30074
:1006E8008030C2000A128A11C7220A128A110A121D
:1006F8008A11DE250A128A110A128A11A9250A12FC
:100708008A118312031306141A3083120313CC00C0
:100718005E30CB006D30CA00CA0B902BCB0B902BF0
:10072800CC0B902B972B8312031306101A308312CD
:100738000313CC005E30CB006D30CA00CA0BA22B6D
:10074800CB0BA22BCC0BA22BA92B852B0A128A111F
:100758001228F401F501700871040319B42BB52BA4
:10076800EC2BF601F60AC32B01300310F00DF10D46
:10077800FF3E031DB92B0130FF007F08F607F11F6C
:10078800C62BC72BB82B01300310F40DF50DFF3E17
:10079800031DC82B71087302031DD42B7008720245
:1007A800031CD72BD82BDF2B7008F2027108031C0F
:1007B800F303F302741401300310F10CF00CFF3E44
:1007C800031DE02B0130F602031DEB2BEC2BC72B8E
:1007D8007508F1007408F000080077087804031918
:1007E800F62BF72B262CFB01FB0A052C01300310F6
:1007F800F70DF80DFF3E031DFB2B0130FF007F08AE
:10080800FB07F81F082C092CFA2B78087A02031D1D
:100818000F2C77087902031C122C132C192C77083B
:10082800F9027808031CFA03FA0201300310F80CE5
:10083800F70CFF3E031D1A2C0130FB02031D252C6B
:10084800262C092C7A08F8007908F700080083128A
:100858000313A200A001A1011830FF007F08FA00CD
:1008680022080A128A1116230A128A11FF007F0829
:1008780083120313A3005D2C2308FF0020084D3EBC
:1008880084007F08831380001830FF007F08FA0077
:1008980000300A128A1116230A128A11FF007F08F3
:1008A80083120313A3000130A0070318A10A003024
:1008B800A1072308031D612C622C402C0800F900B5
:1008C800F701F801712C0130FF007F08F9070130AA
:1008D800F7070318F80A0030F8077908840083132B
:1008E80000080319782C792C8D2C790884000008CD
:1008F800F500F6017508F0007608F10073080A1291
:100908008A1119250A128A11003A031D8C2C8D2C84
:10091800672C7808F4007708F3000800F900F7015D
:10092800F801A02C0130FF007F08F9070130F70714
:100938000318F80A0030F8077908840083130008C0
:100948000319A72CA82CBC2C790884000008F500F2
:10095800F6017508F0007608F10073080A128A118A
:1009680019250A128A11003A0319BB2CBC2C962CA3
:100978007808F4007708F3000800F500CB2C013064
:10098800FF007F08F5070130FF007F08F0077008B7
:1009980084000A128A1139250A128A11F200750890
:1009A800840083130008F30072087302FF007F08B5
:1009B800F4007408031DE12CE22CE92C750884006E
:1009C8000008031DE82CE92CC32C7408F000F10181
:1009D800F01BF1030800F100F2010A128A11F02558
:1009E8000A128A11FF0072087107F000700884006B
:1009F8007F088313800072087107F0007008840074
:100A08000008FF007F08F3000130FF007F08F207AD
:100A18000A3073060319112D122D182D0D30730687
:100A2800031D172D182DF12C0800F2007208840000
:100A38000A128A1139250A128A117006031D252DFA
:100A4800262D282D7208382D0130F207FF30720745
:100A580084000A128A1139250A128A11003A031DE4
:100A6800362D372D1A2D0030080005308A0004086D
:100A7800840A82070034013400340A3400346434B0
:100A88000034E834033410342734253464340A3409
:100A980000344D343134003450343134003450345F
:100AA800323400342C340034F100662D710884008F
:100AB80000080A128A11D2250A128A110130FF0091
:100AC8007F08F1077108840083130008031D6D2D4A
:100AD8006E2D5A2D08000A128A11C5250A128A118C
:100AE80083160313911591197A2D7B2D772D141CDC
:100AF8007E2D7F2D7B2D8312031313080800F00031
:100B08000A128A11C5250A128A1170088312031362
:100B180093008316031314080539031D942D952D8E
:100B28008D2D08000A128A11C5250A128A1183160A
:100B3800031311141118A12DA22D9E2D83128C1DA3
:100B4800A62DA72DA22D8C11080083160313871537
:100B580007160930930080309400910128308312E1
:100B68000313940008008316031311151119BD2DE2
:100B7800BE2DBA2D83128C1DC22DC32DBE2D8C11F6
:100B880008008316031311081F39031DCC2DCD2D22
:100B9800C52D1419D02DD12DC52D0800F0007008D1
:100BA80083120313990083160313981CDC2DDD2D83
:100BB800D72D0800831203138C12831603138C1687
:100BC8000B178B1708008316031391121116111AAD
:100BD800EE2DEF2DEB2D0800831203138C1EF52D3F
:080BE800F62DF02D1A0808009B
:04400E00F23FFF3F3F
:00000001FF
