:020000040000FA
:100000000A128A11D22FFF0000308A007F0882076F
:0800100008280A128A110E28CB
:10001C0008000730F1007D30F000F00B1328F10BD5
:10002C0013280800F501F11F1C281D282428F009AD
:10003C00F109F00A0319F10AF501F50AF31F272853
:10004C0028283128F209F309F20A0319F30A0130BE
:10005C00FF007F08F506F601F7017008710403191B
:10006C00382839287028F401F40A47280130031085
:10007C00F00DF10DFF3E031D3D280130FF007F0800
:10008C00F407F11F4A284B283C2801300310F60DC9
:10009C00F70DFF3E031D4C2871087302031D5828F1
:1000AC0070087202031C5B285C2863287008F2023B
:1000BC007108031CF303F302761401300310F10CE6
:1000CC00F00CFF3E031D64280130F402031D6F2861
:1000DC0070284B2875080319742875287A28F60996
:1000EC00F709F60A0319F70A7708F1007608F00009
:1000FC0008000A128A15C6200A128A11EE300A125A
:10010C008A15D9200A128A11F4300A128A15D920BC
:10011C000A128A1134300A128A15D9200A128A114D
:10012C000A128A110F200A128A110A128A155020FB
:10013C000A128A110A128A1581200A128A110A12CD
:10014C008A15C6200A128A11EE300A128A15D92095
:10015C000A128A11F6300A128A15D9200A128A114B
:10016C000A128A15B3200A128A11EF300A128A1564
:10017C00D9200A128A110A128A15EC200A128A1145
:10018C0083120313C600C701C801C90149088316AD
:10019C000313AB0083120313480883160313AA003E
:1001AC0083120313470883160313A9008312031346
:1001BC00460883160313A8000A168A11F7270A1299
:1001CC008A110A128A15EC200A128A11831203135F
:1001DC00C600C701460883160313AC008312031331
:1001EC00470883160313AD000A168A11F7270A1263
:1001FC008A110A128A15EC200A128A11FF007F0854
:10020C0083160313AE000A128A1550200A128A11A3
:10021C000A128A1581200A128A110030F00001306E
:10022C00F100831603132E0883120313C600C701B3
:10023C004608F2004708F3000A128A1118200A1225
:10024C008A11700883120313C8007108C9000030AA
:10025C00C91BFF30CA00CB00831603132C08831272
:10026C000313CC00831603132D0883120313CD0044
:10027C000030CD1BFF30CE00CF00831603132808AF
:10028C0083120313D000831603132908831203135C
:10029C00D100831603132A0883120313D20083168A
:1002AC0003132B0883120313D30008300310D00D53
:1002BC00D10DD20DD30DFF3E031D5C295008CC0788
:1002CC0051080318510F6B296C29CD0752080318DC
:1002DC00520F71297229CE0753080318530ACF07FE
:1002EC004C08C8074D0803184D0F7D297E29C907F6
:1002FC004E0803184E0F83298429CA074F08031888
:10030C004F0ACB074B0883160313A7008312031362
:10031C004A0883160313A600831203134908831695
:10032C000313A50083120313480883160313A400B8
:10033C00603083120313C600F030C700FF30C800D2
:10034C00FF30C9005B08C6075C0803185C0FAF29B7
:10035C00B029C7075D0803185D0FB529B629C80772
:10036C005E0803185E0AC907490883160313CE00FA
:10037C0083120313480883160313CD00831203134F
:10038C00470883160313CC00831203134608831605
:10039C000313CB001C30903E840083170008F00040
:1003AC00840A0008F100840A0008F200840A00089C
:1003BC00F3004E08F7004D08F6004C08F5004B080A
:1003CC00F4000A128A1570210A128A117308831616
:1003DC000313B6007208B5007108B4007008B300BE
:1003EC00003083120313A3000030A2000030A100E0
:1003FC000030A000831603133608F3003508F20012
:10040C003408F1003308F0004E08F7004D08F600F0
:10041C004C08F5004B08F4000A128A1570210A12D8
:10042C008A11730883120313A7007208A6007108BF
:10043C00A5007008A4000A128A1507230A128A1153
:10044C0083120313230883160313C60083120313AA
:10045C00220883160313C500831203132108831685
:10046C000313C40083120313200883160313C30061
:10047C00003083120313A3000030A2000830A10047
:10048C000030A0000430903E840083170008F00078
:10049C00840A0008F100840A0008F200840A0008AB
:1004AC00F300831603134E08F7004D08F6004C08B2
:1004BC00F5004B08F4000A128A1570210A128A11F1
:1004CC00730883120313A7007208A6007108A50015
:1004DC007008A4000A128A1507230A128A118312C3
:1004EC000313230883160313C20083120313220879
:1004FC0083160313C10083120313210883160313FD
:10050C00C00083120313200883160313BF00430893
:10051C003F0783120313C600003003180130831603
:10052C000313440783120313C8010318C80A831664
:10053C000313400783120313C7000318C80A83165A
:10054C0003134508831203134807C9010318C90A8A
:10055C0083160313410783120313C8000318C90A37
:10056C0083160313460883120313490783160313D8
:10057C00420783120313C900490883160313BE00F4
:10058C0083120313480883160313BD00831203134D
:10059C00470883160313BC00831203134608831603
:1005AC000313BB00003083120313A3000030A2001E
:1005BC000030A1000430A0000230C6000030C7009B
:1005CC000030C8000030C900831603133B088312A7
:1005DC000313CA00831603133C0883120313CB00C6
:1005EC00831603133D0883120313CC0083160313E5
:1005FC003E0883120313CD008316031710088312D1
:10060C000313CE0083160317110883120313CF00B4
:10061C0083160317120883120313D00083160317D3
:10062C00130883120313D10002300310CE0DCF0D2B
:10063C00D00DD10DFF3E031D1B2B4E08CA074F08D2
:10064C0003184F0F2A2B2B2BCB0750080318500FD6
:10065C00302B312BCC0751080318510ACD074A080F
:10066C00C6074B0803184B0F3C2B3D2BC7074C08F8
:10067C0003184C0F422B432BC8074D0803184D0A87
:10068C00C9074908A7004808A6004708A50046085E
:10069C00A4000A128A1507230A128A118312031363
:1006AC00230883160313A300831203132208831653
:1006BC000313A20083120313210883160313A10052
:1006CC0083120313200883160313A0000030831237
:1006DC000313A3000030A2002030A1000030A000C2
:1006EC000830903E840083170008F000840A00084C
:1006FC00F100840A0008F200840A0008F300831653
:10070C0003134E08F7004D08F6004C08F5004B0893
:10071C00F4000A128A1570210A128A1173088312C6
:10072C000313A7007208A6007108A5007008A400A6
:10073C000A128A1507230A128A118312031323083B
:10074C0083160313C60083120313220883160313A4
:10075C00C50083120313210883160313C4008312EC
:10076C000313200883160313C300003083120313F2
:10077C00A3000030A2001030A1000030A0008316AE
:10078C0003134E08F3004D08F2004C08F1004B081F
:10079C00F0004E08F7004D08F6004C08F5004B0829
:1007AC00F4000A128A1570210A128A117308831236
:1007BC000313A7007208A6007108A5007008A40016
:1007CC000A128A1507230A128A11831203132308AB
:1007DC0083160313B6008312031322088316031324
:1007EC00B50083120313210883160313B40083127C
:1007FC000313200883160313B30000308312031372
:10080C00A3000130A2000030A1000030A00083162C
:10081C0003133608F3003508F2003408F1003308EE
:10082C00F0001830903E840083170008F400840A0E
:10083C000008F500840A0008F600840A0008F70096
:10084C000A128A1570210A128A1173088312031373
:10085C00A7007208A6007108A5007008A4000A126F
:10086C008A1507230A128A1183120313230883168D
:10087C000313C20083120313220883160313C1004F
:10088C0083120313210883160313C000831203136E
:10089C00200883160313BF00003083120313A30038
:1008AC000030A2000030A1000430A0000230C600CD
:1008BC000030C7000030C8000030C9008316031395
:1008CC0043083F0783120313CA000030031801309A
:1008DC0083160313440783120313CC010318CC0AA9
:1008EC0083160313400783120313CB000318CC0A9F
:1008FC00831603134508831203134C07CD01031809
:10090C00CD0A83160313410783120313CC0003187B
:10091C00CD0A831603134608831203134D0783165F
:10092C000313420783120313CD004A08C6074B0872
:10093C0003184B0FA22CA32CC7074C0803184C0F01
:10094C00A82CA92CC8074D0803184D0AC90749083B
:10095C00A7004808A6004708A5004608A4000A12EC
:10096C008A1507230A128A1183120313230883168C
:10097C000313BE0083120313220883160313BD0056
:10098C0083120313210883160313BC008312031371
:10099C00200883160313BB003E0883120313BD000B
:1009AC00831603133D0883120313BC008316031331
:1009BC003C0883120313BB00831603133B088312FA
:1009CC000313BA0029300A128A1517210A128A1148
:1009DC00003083120313C6008030C7000030C800FB
:1009EC000030C900831603133B0883120313C60798
:1009FC00831603133C0803183C0F052D082D831296
:100A0C000313C707831603133D0803183D0F0F2D5F
:100A1C00122D83120313C807831603133E08031801
:100A2C003E0A83120313C9074908F3004808F20071
:100A3C004708F1004608F0000C30903E8400831704
:100A4C000008F400840A0008F500840A0008F60087
:100A5C00840A0008F7000A128A1570210A128A11FA
:100A6C00700883120313CA007108CB007208CC0003
:100A7C007308CD000F300310CD0CCC0CCB0CCA0C72
:100A8C00FF3E031D412D4D0883160313B200831244
:100A9C0003134C0883160313B100831203134B0882
:100AAC0083160313B000831203134A08831603132F
:100ABC00AF00240883120313C60083160313250802
:100ACC0083120313C7008316031326088312031320
:100ADC00C80083160313270883120313C900831657
:100AEC000313200883120313C60283160313210871
:100AFC00031C210F822D852D83120313C70283162D
:100B0C0003132208031C220F8C2D8F2D8312031329
:100B1C00C802831603132308031C230F962D992D4B
:100B2C0083120313C9028316031383120313490898
:100B3C00F3004808F2004708F1004608F0000030C6
:100B4C00F7000030F600C330F5005030F4000A1204
:100B5C008A1570210A128A11730883160313BA00BE
:100B6C007208B9007108B8007008B70080303A02FA
:100B7C00031DCC2D00303902031DCC2D0030380262
:100B8C00031DCC2D00303702031DCC2D0318CF2DA7
:100B9C00D02DF12D3208F3003108F2003008F100AD
:100BAC002F08F0000310370DF400380DF500390D47
:100BBC00F6003A0DF7000A128A150C220A128A1155
:100BCC00730883160313CA007208C9007108C800A1
:100BDC007008C700112E3208F3003108F2003008FB
:100BEC00F1002F08F0003A08F7003908F600380831
:100BFC00F5003708F4000A128A150C220A128A1121
:100C0C000310700D83160313C700710DC800720D0D
:100C1C00C900730DCA00003083120313A300003007
:100C2C00A2000130A1000030A000831603134A0873
:100C3C0083120313A70083160313490883120313AB
:100C4C00A60083160313480883120313A50083160A
:100C5C000313470883120313A4000A128A150723EF
:100C6C000A128A11831203132308F3002208F200DC
:100C7C002108F1002008F0000030A3000030A20091
:100C8C000130A1000030A000831603134A08831220
:100C9C000313A70083160313490883120313A6003A
:100CAC0083160313480883120313A500831603133A
:100CBC00470883120313A4000A128A1507230A1289
:100CCC008A11831203132308F7002208F600210867
:100CDC00F5002008F4000A128A1570210A128A11F4
:100CEC00730883160313C6007208C5007108C4008C
:100CFC007008C300003083120313A3000130A2005C
:100D0C000030A1000030A000831603134608F30046
:100D1C004508F2004408F1004308F0000030F700E9
:100D2C000030F6000B30F500DE30F4000A128A15A4
:100D3C0070210A128A11730883120313A700720818
:100D4C00A6007108A5007008A4000A128A150723D2
:100D5C000A128A1183120313230883160313C60085
:100D6C0083120313220883160313C5008312031383
:100D7C00210883160313C40083120313200883165F
:100D8C000313C300003083120313A3000130A2002D
:100D9C000030A1000030A000831603134A08F300B2
:100DAC004908F2004808F1004708F000FF30F7004E
:100DBC00FF30F600E330F5004330F4000A128A15D8
:100DCC0070210A128A11730883120313A700720888
:100DDC00A6007108A5007008A4000A128A15072342
:100DEC000A128A1183120313230883160313C200F9
:100DFC0083120313220883160313C10083120313F7
:100E0C00210883160313C0008312031320088316D2
:100E1C000313BF00003083120313A3000030A200A1
:100E2C000030A1001030A000CF30C6000E30C7003B
:100E3C000030C8000030C9008316031343083F0775
:100E4C0083120313CA0000300318013083160313F6
:100E5C00440783120313CC010318CC0A8316031323
:100E6C00400783120313CB000318CC0A8316031319
:100E7C004508831203134C07CD010318CD0A8316C2
:100E8C000313410783120313CC000318CD0A8316F6
:100E9C0003134608831203134D07831603134207EB
:100EAC0083120313CD004A08C6074B0803184B0FD7
:100EBC00602F612FC7074C0803184C0F662F672F44
:100ECC00C8074D0803184D0AC9074908A700480868
:100EDC00A6004708A5004608A4000A128A15072395
:100EEC000A128A118312031320088316031347076F
:100EFC0083120313CE000030031801302107D001F8
:100F0C000318D00A83160313480783120313CF0068
:100F1C000318D00A22085007D1010318D10A8316EE
:100F2C000313490783120313D0000318D10A2308B3
:100F3C005107831603134A0783120313D100510878
:100F4C0083160313CA00831203135008831603136A
:100F5C00C900831203134F0883160313C8008312AE
:100F6C0003134E0883160313C7004A088312031396
:100F7C00C50083160313490883120313C400831698
:100F8C000313480883120313C30083160313470883
:100F9C0083120313C20008000A168A11F3270A12DF
:100FAC008A11E7000A168A11F4270A128A11E8003E
:100FBC000A168A11F5270A128A11E9000A168A11F3
:100FCC00F6270A128A11EA00831790308400BC308D
:100FDC000A128A1548200A128A118313573084008A
:100FEC0067300A128A1548200A128A1183010A12E4
:100FFC008A15A42B08308A000408840A820700345E
:10100C0001340034003400340A3400340034003429
:10101C006434003400340034E834033400340034D5
:10102C001034273400340034A034863401340034B6
:10103C00403442340F3400348034963498340034C5
:10104C000034E134F53405340034CA349A343B347A
:10105C007834333420343D34203425346C346434C7
:10106C000A340034503420343D34203425346C346C
:10107C0064340034543420343D34203425346C34FE
:10108C006434003464008001840A040603190034BB
:10109C00040649288316031391161116111A5728A2
:1010AC005828542808008316031311081F39031DF0
:1010BC0060286128592814196428652859280800C3
:1010CC0001300A128A1532210A128A1502300A12CC
:1010DC008A1532210A128A15080083160313871504
:1010EC000716093093008030940091012830831248
:1010FC000313940008008316031311151119872884
:10110C008828842883128C1D8C288D2888288C1183
:10111C0008008312031386100610061138300A12C9
:10112C008A1532210A128A150F300A128A153221B9
:10113C000A128A150800F1008312031306147108B1
:10114C0088000615C730F000AB28F00BAA28AE2893
:10115C00AF2883120313061108000A128A155920AE
:10116C000A128A158316031391149118BE28BF28EE
:10117C00BB2883128C1DC328C428BF288C110800DF
:10118C000A128A1559200A128A1583160313111490
:10119C001118D128D228CE2883128C1DD628D728F6
:1011AC00D2288C110800F0000A128A1559200A1254
:1011BC008A15700883120313930083160313140803
:1011CC000539031DEA28EB28E32808000A128A15C2
:1011DC0059200A128A158316031391159119F728B1
:1011EC00F828F428141CFB28FC28F8288312031375
:1011FC0013080800F2000E297208840000080A1275
:10120C008A15A1200A128A150130FF007F08F20707
:10121C007208840083130008031D1529162902295E
:10122C00080083120313BE00C0010130FF007F08C9
:10123C00C1003A30FF007F08BF003E08FF007F0866
:10124C00AA003F30FF007F08AB0040300A128A151D
:10125C005F240A128A150800F20083120313061089
:10126C007208880006150430F100E430F000F00B31
:10127C003D29F10B3D2900008312031306110430A4
:10128C00F100E430F000F00B4929F10B4929000082
:10129C00080083120313BF003F08FF007F08C10042
:1012AC00C2013B30FF007F08C0003A08FF007F08F6
:1012BC00AA004030FF007F08AB0041300A128A15AB
:1012CC005F240A128A1583120313410884008313C6
:1012DC00800108000030FC000030FB000030FA00F8
:1012EC000030F900701C7B297C2993297408F907BC
:1012FC00750803110318013E03198529FA077608AE
:10130C0003110318013E03198C29FB0777080311FD
:10131C000318013E03199329FC070130F800031050
:10132C00F40DF50DF60DF70DF80B952901300310A2
:10133C00F30CF20CF10CF00CFF3E031D9D2973080D
:10134C00720471047004031DAC29AD2978297C0842
:10135C00F3007B08F2007A08F1007908F00008002D
:10136C008312031323082204210420040319BF2928
:10137C00C029032AA901A90AD0290130A800031009
:10138C00A00DA10DA20DA30DA80BC5290130FF00C6
:10139C007F08A907A31FD329D429C329230827020F
:1013AC00031DE22922082602031DE2292108250239
:1013BC00031DE22920082402031CE529E629F4294F
:1013CC002008A4022108031C210FA5022208031CDB
:1013DC00220FA6022308031C230FA70201300310BF
:1013EC00A30CA20CA10CA00CFF3E031DF52901308F
:1013FC00A902031D022A032AD4292708A3002608C0
:10140C00A2002508A1002408A00008000030FC0060
:10141C000030FB000030FA000030F9007308720451
:10142C007104700403191B2A1C2A692AFD01FD0A88
:10143C002C2A0130F8000310F00DF10DF20DF30D14
:10144C00F80B212A0130FF007F08FD07F31F2F2A1C
:10145C00302A1F2A0130F8000310F90DFA0DFB0D8C
:10146C00FC0DF80B322A73087702031D472A720809
:10147C007602031D472A71087502031D472A70085E
:10148C007402031C4A2A4B2A5A2A7008F402710867
:10149C00031C710FF5027208031C720FF60273081D
:1014AC00031C730FF702791401300310F30CF20CC8
:1014BC00F10CF00CFF3E031D5B2A0130FD02031DF5
:1014CC00682A692A302A7C08F3007B08F2007A0823
:1014DC00F1007908F00008000A128A1573200A122C
:1014EC008A150A128A15C6200A128A15EE300A12BB
:1014FC008A15D9200A128A15AA300A128A15D920FF
:10150C000A128A150A128A15B3200A128A15EF30AC
:10151C000A128A15D9200A128A15F901FA01FB015F
:10152C00FC010A128A15EC200A128A15FF007B08AE
:10153C00773E84007F0880000A3079067A04031D08
:10154C00A82AA92ABA2A7B037C04031DAE2AAF2A37
:10155C00BA2A0A128A1550200A128A150A128A15FA
:10156C0081200A128A15BF2A0A168A11F7270A1235
:10157C008A157808F1007708F2000030F21BFF3072
:10158C00F300F4007908F50001300310F50DFF3E6F
:10159C00031DCB2A0310750D903E84007108831730
:1015AC008000840A72088000840A73088000840A10
:1015BC00740880000130FB070318FC0A0030FC079C
:1015CC007C08803AFF0080307F02031DEF2A023036
:1015DC007B02031CF22AF32A972A0130F90703181D
:1015EC00FA0A0030FA077A08803AFF0080307F024E
:1015FC00031D022B0B307902031C052B062B952A9D
:10160C00080083120313A901A31F0D2B0E2B1B2BF8
:10161C00A009A109A209A309A00A0319A10A031987
:10162C00A20A0319A30AA901A90AA71F1E2B1F2B83
:10163C002E2BA409A509A609A709A40A0319A50A12
:10164C000319A60A0319A70A0130FF007F08A9068F
:10165C000030AD000030AC000030AB000030AA0010
:10166C00230822042104200403193D2B3E2B8B2B31
:10167C00A801A80A4E2B0130FD000310A00DA10DEE
:10168C00A20DA30DFD0B432B0130FF007F08A80713
:10169C00A31F512B522B412B0130FD000310AA0D1F
:1016AC00AB0DAC0DAD0DFD0B542B23082702031D08
:1016BC00692B22082602031D692B21082502031D14
:1016CC00692B20082402031C6C2B6D2B7C2B20080F
:1016DC00A4022108031C210FA5022208031C220FBF
:1016EC00A6022308031C230FA7022A14013003109F
:1016FC00A30CA20CA10CA00CFF3E031D7D2B0130F2
:10170C00A802031D8A2B8B2B522B290803198F2B14
:10171C00902B9B2BAA09AB09AC09AD09AA0A03199A
:10172C00AB0A0319AC0A0319AD0A2D08A3002C0847
:10173C00A2002B08A1002A08A0000800831603139E
:10174C00880186018316031789010A128A158F20D6
:10175C000A128A150A128A1566200A128A150A12AA
:10176C008A1572220A128A150A128A1504260A127E
:10177C008A1583120313310883160313EB008312AB
:10178C000313300883160313EA00831203132F0884
:10179C0083160313E900831203132E088316031315
:1017AC00E8003B30FF007F0883120313BA00831656
:1017BC0003136B0883120313BE00831603136A080A
:1017CC0083120313BD0083160313690883120313DA
:1017DC00BC0083160313680883120313BB00CF30BD
:1017EC000A128A154F210A128A15CF300A128A154D
:1017FC0000210A128A150A128A117F200A128A15F0
:10180C0083120313450883160313EF00831203138B
:10181C00440883160313EE00831203134308831644
:10182C000313ED0083120313420883160313EC0019
:10183C003330FF007F0883120313BA00831603139F
:10184C006F0883120313BE00831603136E088312F2
:10185C000313BD00831603136D0883120313BC001E
:10186C00831603136C0883120313BB00CF300A12C8
:10187C008A154F210A128A15CF300A128A150021B7
:10188C000A128A15063083120313D6001330D500C2
:10189C00AD30D400D40B502CD50B502CD60B502C77
:1018AC000A128A1566200A128A15BA2B0A128A1194
:1018BC00002883120313B900ED2D253038060319C7
:1018CC00682C692C8F2C390A8400831300080319A7
:1018DC00702C712C802C3808FF007F08F000390A1E
:1018EC00840000080A128A1103200A128A15831236
:1018FC000313622C3808FF003908840000088400A8
:10190C007F0880000130FF00390884007F088007C1
:10191C00622CB301922C33160130AA07FF302A0730
:10192C0084000A128A1500200A128A15B800AC002D
:10193C00AD012D08003A0319A42CED2D2C08003A0A
:10194C000319012E643A0319B22C0D3A0319B22C67
:10195C00053A0319912CED2D331EB52CB62CCB2C3E
:10196C002B08840083130008FF00043080077F08D5
:10197C0084000008B400840A0008B500840A00083A
:10198C00B600840A0008B700E22C2B0884008313ED
:10199C000008FF00023080077F0884000008AC00BC
:1019AC00840A0008AD002C08B4002D08B5000030E6
:1019BC00B51BFF30B600B700B71FE52CE62CF52C95
:1019CC000330FF007F08B304B409B509B609B709A1
:1019DC00B40A0319B50A0319B60A0319B70AB801F0
:1019EC00B80A3808AC0001300310AC0DFF3E031DE3
:1019FC00FA2C03102C0D013E84000A128A150020CB
:101A0C000A128A15AD000A128A1500200A128A15CC
:101A1C00AE000A128A1500200A128A15AF000A12AB
:101A2C008A1500200A128A15B00030083702031DEF
:101A3C00292D2F083602031D292D2E083502031DD2
:101A4C00292D2D08340203182C2D2D2D2E2D382D3B
:101A5C000130FF007F08B8070A303806031D372D08
:101A6C00382DF72C3308033903193D2D3E2D612DEC
:101A7C00390A8400831300080319452D462D532D74
:101A8C002D30FF007F08F000390A840000080A128C
:101A9C008A1103200A128A15612D2D30FF00390896
:101AAC008400000884007F0880000130FF003908A2
:101ABC0084007F088007831203133808AC00AD0143
:101ACC002C08B1002D08B200DD2D0030A300003031
:101ADC00A2000030A1000A30A0003108AC00013097
:101AEC000310AC0DFF3E031D762D03102C0D013E93
:101AFC0084000A128A1500200A128A15F0000A12B4
:101B0C008A1500200A128A15F1000A128A15002083
:101B1C000A128A15F2000A128A1500200A128A1576
:101B2C00F3003708F7003608F6003508F5003408DE
:101B3C00F4000A128A150C220A128A1573088312F1
:101B4C000313A7007208A6007108A5007008A40072
:101B5C000A128A15B6210A128A1583120313200859
:101B6C00303EFF007F08B800390A84008313000858
:101B7C000319C12DC22DCF2D3808FF007F08F000AE
:101B8C00390A840000080A128A1103200A128A15E5
:101B9C00DD2D3808FF0039088400000884007F0818
:101BAC0080000130FF00390884007F088007FF3077
:101BBC0083120313B1070318B20AFF30B207310ABC
:101BCC00031DEC2D320A031DEC2DED2D6B2D013078
:101BDC0083120313AA07FF302A0784000A128A15FE
:101BEC0000200A128A15FF007F08B8003808031D70
:101BFC00002E012E632CAA01AB0108000A128A15D3
:101C0C00C6200A128A15EE300A128A15D9200A1239
:101C1C008A15F4300A128A15D9200A128A152E3028
:101C2C000A128A15D9200A128A150A128A110F2053
:101C3C000A128A150A128A1550200A128A150A12DB
:101C4C008A1581200A128A150A128A15C6200A12D0
:101C5C008A15EE300A128A15D9200A128A15F63026
:101C6C000A128A15D9200A128A150A128A15B3206B
:101C7C000A128A15EF300A128A15D9200A128A150F
:101C8C000A128A15EC200A128A1583120313B20069
:101C9C00B3013208C4003308C5000A168A11F727AD
:101CAC000A128A150A128A15EC200A128A15831256
:101CBC000313B200B3013208C6003308C7000A127E
:101CCC008A1550200A128A150A128A1581200A12C6
:101CDC008A15831203134608B2004708B30000307C
:101CEC00B31BFF30B400B5004508B7004408B6007C
:101CFC003608B700B6013608B8003708B90000300E
:101D0C00B91BFF30BA00BB003808B20739080318FA
:101D1C00390F912E922EB3073A0803183A0F972ECB
:101D2C00982EB4073B0803183B0AB5073508BF00CB
:101D3C003408BE003308BD003208BC000030A300DC
:101D4C000030A2008030A1000030A0003C08B2009E
:101D5C003D08B3003E08B4003F08B50083160317D6
:101D6C00240883120313B202831603172508031CDD
:101D7C00250FC12EC42E83120313B302831603172F
:101D8C002608031C260FCB2ECE2E83120313B4026F
:101D9C00831603172708031C270FD52ED82E831262
:101DAC000313B50283160317831203133508F300CC
:101DBC003408F2003308F1003208F0001030903E85
:101DCC00840083170008F400840A0008F500840AD4
:101DDC000008F600840A0008F7000A128A15702120
:101DEC000A128A15730883120313A7007208A6003F
:101DFC007108A5007008A4000A128A1507230A129C
:101E0C008A15831203132308E6002208E500210833
:101E1C00E4002008E3008316031738088312031329
:101E2C006307B2000030031801308316031739071B
:101E3C0083120313B4010318B40A6407B300031824
:101E4C00B40A831603173A08831203133407B50137
:101E5C000318B50A6507B4000318B50A83160317EF
:101E6C003B088312031335076607B5003508A3003A
:101E7C003408A2003308A1003208A000831603170F
:101E8C00340883120313B600831603173508831224
:101E9C000313B70083160317360883120313B80015
:101EAC0083160317370883120313B9000B30031082
:101EBC00B60DB70DB80DB90DFF3E031D5D2F3908DA
:101ECC00A7003808A6003708A5003608A4000A1297
:101EDC008A1507230A128A15831203132308E200BA
:101EEC002208E1002108E0002008DF0063085F07FA
:101EFC00B2000030031801306407B4010318B40AAF
:101F0C006007B3000318B40A65083407B501031859
:101F1C00B50A6107B4000318B50A660835076207ED
:101F2C00B5003508DE003408DD003308DC0032086B
:101F3C00DB000030A3000030A2000030A100103004
:101F4C00A0000830B2000030B3000030B400003004
:101F5C00B5005B08B2075C0803185C0FB62FB72FEF
:101F6C00B3075D0803185D0FBC2FBD2FB4075E08C7
:101F7C0003185E0AB5073508A7003408A600330815
:101F8C00A5003208A4000A128A1507230A128A1522
:101F9C00831203132308C3002208C2002108C100C6
:101FAC002008C0000030A3000030A2000030A100C7
:101FBC000A30A0004308A7004208A6004108A5006B
:101FCC004008A4000A128A1507230A128A158312E4
:101FDC0003132308DA002208D9002108D8002008AE
:101FEC00D7005A08B1005908B0005808AF0057087C
:041FFC00AE0008002B
:102FE600EE340034EF3400348316031391121116B5
:0A2FF600111AFE2FFF2FFB2F080019
:04400E00F43FFF3F3D
:00000001FF
