:100000000C942A000C9434000C9434000C943400AA
:100010000C9434000C9434000C9434000C94340090
:100020000C9434000C9434000C9434000C94340080
:100030000C9434000C9434000C9434000C94340070
:100040000C9434000C9434000C9434000C94340060
:100050000C94340011241FBECFE5D4E0DEBFCDBF29
:100060000E946F000C9483000C94000084E986BF0A
:1000700006B604FCFDCF089583B984E886BF06B6B2
:1000800007FEFDCF81B1887F883221F0803321F4D3
:1000900081E0089580E0089582E0089594EA96BF93
:1000A00006B607FEFDCF91B1987F983071F483B901
:1000B00084E886BF06B607FEFDCF81B1887F883110
:1000C00031F0803231F482E0089580E0089581E0DB
:1000D000089583E0089511B88FEF80B9089514BA98
:1000E0000E946B0080EA0E944E008FE80E943C0054
:1000F0000E94360083EC99E00197F1F700C0000000
:0A01000080E090E00895F894FFCF2E
:00000001FF
