:020000040000FA
:060000000A128A11122809
:10000800FE00030E83120313C0000408C1000A088F
:10001800C2007F08C3000A128A112B280A128A110B
:100028001528FD018313203084003E300A128A11FE
:100038009E210A128A11A0308400C8300A128A113F
:100048009E210A128A1183010A128A11B2288B137F
:100058008C1D2F283028A4281412141B3428352866
:100068003928941F3828392840281308BE003E082C
:10007800FD0014139413141683160313941A4528B9
:1000880046288128141949284A28812883120313ED
:100098001308BE003E08FD0083160313141C5528E0
:1000A8005628502867280810881008157F28081037
:1000B800881408117F280814881008117F28081050
:1000C800881008117F28831203131308BE00BF018C
:1000D8003F08003A0319712863283E083D3A03197E
:1000E8007F285F3A03195728053A03195B28153A00
:1000F80003195F2863281416A428941A84288528CD
:10010800A428141D88288928A428141083120313EE
:1001180008160A128A1123210A128A11831203135C
:1001280086000A128A1123210A128A1183120313E4
:1001380093001416831603131418A328A4289E28C2
:1001480083128C118B174308FF0042088A0041086C
:100158008400400E8300FE0E7E0E090083160313F2
:1001680088018312031388018316031386018312FF
:10017800031386013030C4000030C5000A128A110A
:1001880054210A128A118312031306141A30831297
:100198000313C8005E30C7006D30C600C60BD228F6
:1001A800C70BD228C80BD228D928831203130610EC
:1001B8001A3083120313C8005E30C7006D30C600C2
:1001C800C60BE428C70BE428C80BE428EB28C7288B
:1001D8000A128A111228F201F30183120313881FED
:1001E800F628F728F1285330F000F00BF92883128D
:1001F8000313881F0029012904290314F40D0A296F
:100208007408F0007007F1007108F400881B0D29CC
:100218000E290A290130F2070318F30A0030F30700
:100228007308803AFF0080307F02031D1D290830C3
:100238007202031C20292129F128740808000A12D7
:100248008A1176210A128A110A128A118F210A123A
:100258008A110A128A11EF200A128A110A128A11C7
:10026800EF200A128A11F5007508F7000A128A11A0
:10027800EF200A128A11F5007508FC000A128A118B
:10028800EF200A128A11F5007508F9000A128A117E
:10029800EF200A128A11F5007508FA007C08080098
:1002A80080308316031394008312031344088316C3
:1002B8000313930001309100871507168312031367
:1002C8001408F0390638940014169416831603138C
:1002D80011148B170B17831203138C118316031336
:1002E8008C1508000A128A11AD210A128A1183128C
:1002F800031388137530F100E130F000F00B822908
:10030800F10B82298312031388170A128A11A62176
:100318000A128A11080083120313881B942995294D
:100328008F29881F982999299529881B9C299D29F7
:100338009929080064008001840A0406031900341E
:1003480004069F298316031388178312031388133F
:1003580008008316031388138312031388170800F1
:04400E00F23FFF3F3F
:00000001FF
