:020000040000FA
:060000000A128A11122809
:10000800FE00030E83120313CC000408CD000A0877
:10001800CE007F08CF000A128A1112290A128A110B
:1000280015288313203084003D300A128A11B62225
:100038000A128A11A0308400D2300A128A11B6221C
:100048000A128A1183010A128A11AF298312031333
:10005800C8003E30C0004008C300FB2825304906D0
:1000680003193728382844284908C000480884005C
:100078004008831380000130C0004008C807FB28EF
:10008800C4010130BD07FF303D0784000A128A1100
:1000980093220A128A11C900C000C1014108003A1E
:1000A80003195728FB284008003A03190D29643A18
:1000B800031962280D3A03196228FB2843088400B3
:1000C80083130008C600840A0008C7000230C00075
:1000D8004008C307C71F712872287B280330C00057
:1000E8004008C404C609C709C60A0319C70AC901D2
:1000F800C90A4908C0004007013E84000A128A1153
:1001080093220A128A11C1000A128A1193220A1232
:100118008A11C20042084702031D9428410846027A
:100128000318972898289928A3280130C000400868
:10013800C90705304906031DA228A3287D284408BD
:1001480003390319A828A928B4282D30C000480865
:1001580084004008831380000130C0004008C807AD
:100168004908C0004008C500F2280A30F8000030ED
:10017800F9004508C0004007013E84000A128A11B0
:1001880093220A128A11F0000A128A1193220A1283
:100198008A11F1004708F3004608F2000A128A1192
:1001A800F3210A128A117108FB007008FA000A127A
:1001B8008A1137220A128A117808303E83120313F3
:1001C800C1004108C9004908C00048088400400827
:1001D800831380000130C0004008C807FF30C0000A
:1001E8004008C507450A031DFA28FB28B92801302D
:1001F800BD07FF303D0784000A128A1193220A12B4
:100208008A11C0004008C9004908031D0C290D299E
:100218003228480884008313800108008B138C1D42
:1002280016291729A0291412141B1B291C29202957
:10023800941F1F29202927291308CA004A08B20039
:1002480014139413141683160313941A2C292D29A6
:1002580068291419302931296829831203131308CE
:10026800CA004A08B20083160313141C3C293D290E
:1002780037294E290810881008156629081088148F
:1002880008116629081488100811662908108810B2
:1002980008116629831203131308CA00CB014B08FF
:1002A800003A031958294A294A083D3A0319662988
:1002B8005F3A03193E29053A03194229153A0319E9
:1002C80046294A291416A029941A6B296C29A029B1
:1002D800141D6F297029A029633083120313AC0001
:1002E8000130AD00831603131410831203132C0876
:1002F80093001416831603131418832984297E295E
:100308001410831203132D08930014168316031375
:1003180014188F2990298A290B3083120313CA00D5
:100328004A08BD002D08BF002C08BE0033300A1251
:100338008A112A200A128A11831203138C118B172F
:100348004F08FF004E088A004D0884004C0E8300B9
:10035800FE0E7E0E09000130831603138500880106
:100368008312031388018316031386018312031370
:1003780086013030D0000030D1000A128A11712273
:100388000A128A110A128A11A7220A128A118312E2
:10039800031306141A3083120313D4005E30D300FB
:1003A8006D30D200D20BD629D30BD629D40BD6293F
:1003B800DD298312031306101A3083120313D400A5
:1003C8005E30D3006D30D200D20BE829D30BE82978
:1003D800D40BE829EF29CB290A128A111228F50132
:1003E800F601700871040319FA29FB29322AF7016A
:1003F800F70A092A01300310F00DF10DFF3E031D25
:10040800FF290130F4007408F707F11F0C2A0D2AA0
:10041800FE2901300310F50DF60DFF3E031D0E2ACF
:1004280071087302031D1A2A70087202031C1D2A20
:100438001E2A252A7008F2027108031CF303F3022E
:10044800751401300310F10CF00CFF3E031D262A31
:100458000130F702031D312A322A0D2A7608F100ED
:100468007508F00008007808790403193C2A3D2A29
:100478006C2AFD01FD0A4B2A01300310F80DF90D15
:10048800FF3E031D412A0130FC007C08FD07F91FCF
:100498004E2A4F2A402A79087B02031D552A7808DC
:1004A8007A02031C582A592A5F2A7808FA0279081E
:1004B800031CFB03FB0201300310F90CF80CFF3E90
:1004C800031D602A0130FD02031D6B2A6C2A4F2A86
:1004D8007B08F9007A08F8000800803083160313B7
:1004E80094008312031350088316031393000130FA
:1004F800910087150716831203131408F03906387C
:100508009400141694168316031311148B170B17E3
:10051800831203138C11831603138C150800023001
:100528008A000408840A82070034013400340A343B
:10053800003464340034E834033410342734253468
:1005480064340A3400343F30831203139F05831642
:1005580003131F129F129F17C330831203139F05A3
:100568001F14080064008001840A0406031900347B
:040578000406B72A94
:04400E00F23FFF3F3F
:00000001FF
