:100000000C942A000C9434000C9434000C943400AA
:100010000C9434000C9434000C9434000C94340090
:100020000C9434000C9434000C9434000C94340080
:100030000C9434000C9434000C9434000C94340070
:100040000C9434000C9434000C9434000C94340060
:100050000C94340011241FBECFE5D4E0DEBFCDBF29
:100060000E9493000C94AB000C94000082B984ECC5
:1000700086BF089506B607FEFDCF81B1887F803622
:1000800061F0883661F0883A61F0803B61F080373A
:1000900061F0883779F782E0089580E0089580E084
:1000A000089581E0089581E0089582E0089583B97C
:1000B00084EC86BF06B607FEFDCF81B1887F803A0B
:1000C00029F486B7806886BF8FEF0895883B59F082
:1000D000803C29F486B7806886BF8EEF0895883CFF
:1000E00021F48DEF089580E008958CEF089584EC5D
:1000F00086BF06B607FEFDCF81B1887F803811F03C
:10010000803911F483B10895883811F0883911F4D9
:1001100083B10895803A29F486B7806886BF8FEF4F
:1001200008958EEF089580EA0E94360011BA8FEF8D
:1001300087BB12BA88B382BB0E943A00882319F0A9
:10014000813029F0F7CF0E94770082BBF3CF86B3CE
:0A0150000E945700EFCFF894FFCF94
:00000001FF
