:020000040000FA
:060000000A128A110E280D
:10000800FE00030EF2000408F3000A08F4000A12C6
:100018008A1122280A128A111128F7018312031360
:10002800A001A101A201A301A401A501A601A701A4
:10003800A801A90183010A128A119A288B13831235
:1000480003138C1D282829288E281412141B2D28E8
:100058002E283228941F3128322839281308F00016
:100068007008F70014139413141683160313941AC4
:100078003E283F287A281419422843287A288312D0
:1000880003131308F0007008F70083160313141CF9
:100098004E284F2849286028081088100815782805
:1000A800081088140811782808148810081178286E
:1000B8000810881008117828831203131308F00019
:1000C800F1017108003A03196A285C2870083D3A62
:1000D800031978285F3A03195028053A0319542858
:1000E800153A031958285C2814168E28941A7D2866
:1000F8007E288E28141D812882288E2814108312A9
:1001080003130608930014168316031314188D2876
:100118008E28882883128C118B1774088A0073081C
:100128008400720E8300FE0E7E0E090083160313F0
:10013800880183120313880183160313860183122F
:10014800031386013230F5000030F6000A128A11D6
:10015800D7200A128A118312031306141A30831245
:100168000313AC005E30AB006D30AA00AA0BBA28AE
:10017800AB0BBA28AC0BBA28C1288312031306109C
:100188001A3083120313AC005E30AB006D30AA0046
:10019800AA0BCC28AB0BCC28AC0BCC28D328AF2887
:1001A8000A128A110E2880308316031394007508EA
:1001B8009300013091008715071683120313140862
:1001C800F039063894001416941683160313111484
:1001D8008B170B17831203138C11831603138C15BB
:0201E80008000D
:04400E00F23FFF3F3F
:00000001FF
