:060000000A128A11122809
:10000800FE00030E83120313B1000408B2000A08AD
:10001800B3007F08B4000A128A1123280A128A1131
:100028001528FC0183134830840059300A128A11BC
:100038002F260A128A1183010A128A11A12B8B1307
:1000480020300A128A1111260A128A114F300A1218
:100058008A112E250A128A114F300A128A116A242F
:100068000A128A111230FF007F08F000831203136E
:1000780048080A128A1100250A128A1170087104A8
:10008800031D4728482852290F30FF007F08F00039
:100098008312031349080A128A1100250A128A11C9
:1000A80070087104031D59285A28CF288312031396
:1000B8004A088400613083130006031D64286528FC
:1000C800B3280A128A11D5250A128A1131300A1268
:1000D8008A11C2250A128A110A128A11AE250A1239
:1000E8008A11FF007F0883120313CD000A128A11B8
:1000F80026260A128A110A128A11AE250A128A11B4
:10010800FF007F0883120313CE000A128A11F62516
:100118000A128A11831203134E08AD00AE012D088E
:10012800AE00AD014D082D07CB000030031801309B
:100138002E07CC000B30FF007F08A0004C08A2005F
:100148004B08A1004F300A128A1161210A128A1144
:100158004F300A128A1197250A128A1152290A1257
:100168008A11D5250A128A1130300A128A11C2253D
:100178000A128A11831203134A08840083130008A1
:100188000A128A11C2250A128A110A128A11F62540
:100198000A128A1152291530FF007F08F0008312D5
:1001A800031349080A128A1100250A128A117008D5
:1001B8007104031DE028E1285229831203134A0819
:1001C8008400613083130006031DEB28EC283B29CB
:1001D8000A128A11D5250A128A1133300A128A1195
:1001E800C2250A128A110A128A11AE250A128A1128
:1001F800FF007F0883120313CD000A128A112626F6
:100208000A128A110A128A11AE250A128A11FF00EF
:100218007F0883120313CE000A128A11F6250A12E8
:100228008A11831203134D08AD00AE014E08AF00CA
:10023800B0012F08B000AF012D082F04CB002E0805
:100248003004CC000B30FF007F08A0004C08A2004F
:100258004B08A1004F300A128A1161210A128A1133
:100268004F300A128A1197250A128A1152290A1246
:100278008A11D5250A128A1132300A128A11C2252A
:100288000A128A11831203134A0884008313000890
:100298000A128A11C2250A128A11C9288312031365
:1002A8008C128B173408FF0033088A003208840048
:1002B800310E8300FE0E7E0E090083120313AB007D
:1002C8002130FF007F08A600322A25302C060319AA
:1002D8006E296F297B292C08FF002B0884007F08D2
:1002E800831380000130FF007F08AB07322AA70183
:1002F8000130A007FF30200784000A128A117825F0
:100308000A128A11AC00A300A4012408003A0319B8
:100318008E29322A2308003A0319442A643A031919
:1003280099290D3A03199929322A2608840083133A
:100338000008A900840A0008AA000230FF007F080C
:10034800A607AA1FA829A929B2290330FF007F08F8
:10035800A704A909AA09A90A0319AA0AAC01AC0A9F
:100368002C08A3002307013E84000A128A1178256D
:100378000A128A11A4000A128A1178250A128A110F
:10038800A50025082A02031DCB29240829020318E1
:10039800CE29CF29D029DA290130FF007F08AC0700
:1003A80005302C06031DD929DA29B4292708033971
:1003B8000319DF29E029EB292D30FF002B088400E1
:1003C8007F08831380000130FF007F08AB072C08EB
:1003D800FF007F08A800292A0A30F7000030F8003B
:1003E8002808A3002307013E84000A128A117825F1
:1003F8000A128A11F0000A128A1178250A128A1143
:10040800F1002A08F3002908F2000A128A11EC23E5
:100418000A128A117108FA007008F9000A128A1182
:1004280030240A128A117708303EFF007F088312B1
:100438000313AC002C08FF002B0884007F088313EB
:1004480080000130FF007F08AB07FF30FF007F0806
:10045800A807280A031D312A322AF0290130A007EB
:10046800FF30200784000A128A1178250A128A119F
:10047800FF007F08AC002C08031D432A442A692981
:100488002B08840083138001080083120313BF0123
:10049800B81F4F2A502A5D2AB509B609B709B80905
:1004A800B50A0319B60A0319B70A0319B80ABF012E
:1004B800BF0ABC1F602A612A702AB909BA09BB0998
:1004C800BC09B90A0319BA0A0319BB0A0319BC0AF9
:1004D8000130FF007F08BF060030C3000030C200B3
:1004E8000030C1000030C000380837043604350435
:1004F80003197F2A802ACD2ABE01BE0A902A01301C
:10050800BD000310B50DB60DB70DB80DBD0B852A8E
:100518000130FF007F08BE07B81F932A942A832A58
:100528000130BD000310C00DC10DC20DC30DBD0BC0
:10053800962A38083C02031DAB2A37083B02031DE4
:10054800AB2A36083A02031DAB2A35083902031CC8
:10055800AE2AAF2ABE2A3508B9023608031C360F60
:10056800BA023708031C370FBB023808031C380FC0
:10057800BC02401401300310B80CB70CB60CB50C13
:10058800FF3E031DBF2A0130BE02031DCC2ACD2A1F
:10059800942A3F080319D12AD22ADD2AC009C109A1
:1005A800C209C309C00A0319C10A0319C20A0319F7
:1005B800C30A4308B8004208B7004108B60040081B
:1005C800B50008008316031386140611831203135B
:1005D8004708B8004608B7004508B6004408B50003
:1005E8000130BC003130BB002D30BA000030B900FA
:1005F8000A128A1149220A128A118312031338082F
:1006080083160313A30083120313370883160313F7
:10061800A20083120313360883160313A100831262
:100628000313350883160313A00000308312031345
:10063800B8000030B7000030B6004030B50083166F
:100648000313230883120313BC0083160313220821
:1006580083120313BB0083160313210883120313A9
:10066800BA0083160313200883120313B9000A1271
:100678008A1149220A128A11831203133508FF3E90
:100688008316031399008312031398178316031311
:10069800181218139816831203131813181698179C
:1006A8000800FB007B08031D5A2B5B2B5F2B7C0883
:1006B800FF007F08FB007B08031D632B642B662B60
:1006C8000030A02B7A08FF007F08F3007B080A128D
:1006D8008A11A2240A128A117308FF007F08FB07F7
:1006E8007B08840083130008031D7B2B7C2B7F2B46
:1006F800FC010030A02B7A08FF007F08F3007B087C
:100708000A128A11D1240A128A1173087B07FF0082
:100718007F08FC007C088400831300080319952BCC
:10072800962B9E2B7C08840080010130FF007F08F7
:10073800FC079F2BFC017B08080083160313880124
:10074800831203138801831603138601831203138C
:1007580086010030C7000030C6002530C500803053
:10076800C4000A128A11E6220A128A110A128A1190
:100778001D260A128A110A128A11E8250A128A11FC
:100788008312031306141A3083160313A6005E306F
:10079800A5006D30A400A40BCF2BA50BCF2BA60B67
:1007A800CF2BD62B8312031306101A30831603138C
:1007B800A6005E30A5006D30A400A40BE12BA50BAC
:1007C800E12BA60BE12BE82BC42B0A128A11122865
:1007D800F401F501700871040319F32BF42B2B2C89
:1007E800F601F60A022C01300310F00DF10DFF3E60
:1007F800031DF82B0130FF007F08F607F11F052CB9
:10080800062CF72B01300310F40DF50DFF3E031DE8
:10081800072C71087302031D132C70087202031C45
:10082800162C172C1E2C7008F2027108031CF303F7
:10083800F302741401300310F10CF00CFF3E031D99
:100848001F2C0130F602031D2A2C2B2C062C7508B0
:10085800F1007408F0000800770878040319352CB3
:10086800362C652CFB01FB0A442C01300310F70DD4
:10087800F80DFF3E031D3A2C0130FF007F08FB07EF
:10088800F81F472C482C392C78087A02031D4E2C67
:1008980077087902031C512C522C582C7708F9023E
:1008A8007808031CFA03FA0201300310F80CF70C5D
:1008B800FF3E031D592C0130FB02031D642C652CDF
:1008C800482C7A08F8007908F70008008312031307
:1008D800A200A001A1011830FF007F08FA00220839
:1008E8000A128A1155230A128A11FF007F088312FF
:1008F8000313A3009C2C2308FF002008483E840013
:100908007F08831380001830FF007F08FA0000304A
:100918000A128A1155230A128A11FF007F088312CE
:100928000313A3000130A0070318A10A0030A10790
:100938002308031DA02CA12C7F2C0800F900F70127
:10094800F801B02C0130FF007F08F9070130F707E4
:100958000318F80A0030F8077908840083130008A0
:100968000319B72CB82CCC2C790884000008F500A2
:10097800F6017508F0007608F10073080A128A116A
:1009880058250A128A11003A031DCB2CCC2CA62C10
:100998007808F4007708F3000800F900F701F80177
:1009A800DF2C0130FF007F08F9070130F707031833
:1009B800F80A0030F807790884008313000803193F
:1009C800E62CE72CFB2C790884000008F500F601DA
:1009D8007508F0007608F10073080A128A11582584
:1009E8000A128A11003A0319FA2CFB2CD52C780824
:1009F800F4007708F3000800F5000A2D0130FF0025
:100A08007F08F5070130FF007F08F00770088400B1
:100A18000A128A1178250A128A11F20075088400D0
:100A280083130008F30072087302FF007F08F400C4
:100A38007408031D202D212D282D75088400000819
:100A4800031D272D282D022D7408F000F101F01B3D
:100A5800F1030800F100F2010A128A1137260A127E
:100A68008A11FF0072087107F000700884007F087F
:100A78008313800072087107F00070088400000872
:100A8800FF007F08F3000130FF007F08F2070A30FB
:100A980073060319502D512D572D0D307306031D64
:100AA800562D572D302D0800F200720884000A12C6
:100AB8008A1178250A128A117006031D642D652D86
:100AC800672D7208772D0130F207FF307207840016
:100AD8000A128A1178250A128A11003A031D752D07
:100AE800762D592D0030080005308A000408840A44
:100AF80082070034013400340A340034643400348A
:100B0800E834033410342734253464340A34003488
:100B18005034313400344D343234003450343234AB
:100B280000342C340034F100A52D7108840000082D
:100B38000A128A1111260A128A110130FF007F0851
:100B4800F1077108840083130008031DAC2DAD2D37
:100B5800992D08000A128A1104260A128A1183168E
:100B6800031391159119B92DBA2DB62D141CBD2D4D
:100B7800BE2DBA2D8312031313080800F0000A12C1
:100B88008A1104260A128A1170088312031393002B
:100B98008316031314080539031DD32DD42DCC2D2A
:100BA80008000A128A1104260A128A1183160313EE
:100BB80011141118E02DE12DDD2D83128C1DE52D6A
:100BC800E62DE12D8C1108008316031387150716EF
:100BD8000930930080309400910128308312031368
:100BE800940008008316031311151119FC2DFD2D0F
:100BF800F92D83128C1D012E022EFD2D8C1108005B
:100C08008316031311081F39031D0B2E0C2E042EF7
:100C180014190F2E102E042E0800F00070088312ED
:100C28000313990083160313981C1B2E1C2E162ED3
:100C38000800831203138C12831603138C160B17E8
:100C48008B1708008316031391121116111A2D2EF3
:100C58002E2E2A2E080064008001840A0406031937
:100C680000340406302E831203138C1E3C2E3D2EB6
:060C7800372E1A080800E7
:04400E00F23FFF3F3F
:00000001FF
