:020000040000FA
:060000000A128A11122809
:10000800FE00030E83120313B0000408B1000A08AF
:10001800B2007F08B3000A128A112A280A128A112C
:10002800152883120313CB01CC01CD01CE01CF01DA
:10003800D001D101D201D301D401D501D601D70114
:10004800D801D90183010A128A11532B8B1350301E
:100058000A128A11E0240A128A1150300A128A11EF
:100068001C240A128A11123083120313AD002D08C2
:10007800F0004B080A128A11B2240A128A11700879
:100088007104031D482849281E290F3083120313C1
:10009800AD002D08F0004C080A128A11B2240A1289
:1000A8008A1170087104031D5A285B28B628831228
:1000B80003134D088400613083130006031D65286F
:1000C80066289A280A128A1187250A128A1131305D
:1000D8000A128A1174250A128A110A128A116025D5
:1000E8000A128A1183120313AD002D08CF000A12D9
:1000F8008A11A8250A128A110B3083120313AD0046
:100108002D08A0004F08AE00AF012E08A1002F084F
:10011800A20050300A128A112D210A128A11503079
:100128000A128A1149250A128A111E290A128A11ED
:1001380087250A128A1130300A128A1174250A1288
:100148008A11831203134D088400831300080A12CE
:100158008A1174250A128A110A128A11A8250A120C
:100168008A111E29153083120313AD002D08F000E3
:100178004C080A128A11B2240A128A1170087104F2
:10018800031DC728C8281E29831203134D0884009D
:10019800613083130006031DD228D32807290A12C9
:1001A8008A1187250A128A1133300A128A11742596
:1001B8000A128A110A128A1160250A128A118312F8
:1001C8000313AD002D08CF000A128A11A8250A12C0
:1001D8008A110B3083120313AD002D08A0004F08BD
:1001E800AE00AF012E08A1002F08A20050300A125D
:1001F8008A112D210A128A1150300A128A114925B2
:100208000A128A111E290A128A1187250A128A11CE
:1002180032300A128A1174250A128A1183120313C2
:100228004D088400831300080A128A1174250A12E3
:100238008A11B028831203138C128B173308FF001E
:1002480032088A0031088400300E8300FE0E7E0ECC
:10025800090083120313AB002130A3002308A60072
:10026800FE2925302C0603193A293B2947292C0851
:10027800A3002B0884002308831380000130A30007
:100288002308AB07FE29A7010130A007FF3020078C
:1002980084000A128A112A250A128A11AC00A300C6
:1002A800A4012408003A03195A29FE292308003A10
:1002B8000319102A643A031965290D3A03196529A7
:1002C800FE292608840083130008A900840A000870
:1002D800AA000230A3002308A607AA1F74297529BB
:1002E8007E290330A3002308A704A909AA09A90A9B
:1002F8000319AA0AAC01AC0A2C08A3002307013E83
:1003080084000A128A112A250A128A11A4000A12E4
:100318008A112A250A128A11A50025082A02031D16
:1003280097292408290203189A299B299C29A62978
:100338000130A3002308AC0705302C06031DA529AE
:10034800A6298029270803390319AB29AC29B7291D
:100358002D30A3002B08840023088313800001306C
:10036800A3002308AB072C08A3002308A800F5293D
:100378000A30F8000030F9002808A3002307013EDE
:1003880084000A128A112A250A128A11F0000A1218
:100398008A112A250A128A11F1002A08F30029086D
:1003A800F2000A128A119E230A128A117108FB00B0
:1003B8007008FA000A128A11E2230A128A117808D0
:1003C800303E83120313A4002408AC002C08A300B9
:1003D8002B0884002308831380000130A30023081E
:1003E800AB07FF30A3002308A807280A031DFD292F
:1003F800FE29BC290130A007FF30200784000A121B
:100408008A112A250A128A11A3002308AC002C0895
:10041800031D0F2A102A35292B0884008313800115
:10042800080083120313BE01B71F1B2A1C2A292A9E
:10043800B409B509B609B709B40A0319B50A031905
:10044800B60A0319B70ABE01BE0ABB1F2C2A2D2AF9
:100458003C2AB809B909BA09BB09B80A0319B90A83
:100468000319BA0A0319BB0A0130BC003C08BE06CE
:100478000030C2000030C1000030C0000030BF00B2
:10048800370836043504340403194B2A4C2A992AB0
:10049800BD01BD0A5C2A0130BC000310B40DB50DC6
:1004A800B60DB70DBC0B512A0130BC003C08BD0786
:1004B800B71F5F2A602A4F2A0130BC000310BF0D06
:1004C800C00DC10DC20DBC0B622A37083B02031DCB
:1004D800772A36083A02031D772A35083902031DA0
:1004E800772A34083802031C7A2A7B2A8A2A340895
:1004F800B8023508031C350FB9023608031C360F3D
:10050800BA023708031C370FBB023F14013003102F
:10051800B70CB60CB50CB40CFF3E031D8B2A01308A
:10052800BD02031D982A992A602A3E0803199D2AAC
:100538009E2AA92ABF09C009C109C209BF0A03190D
:10054800C00A0319C10A0319C20A4208B7004108C0
:10055800B6004008B5003F08B4000800FD007D085B
:10056800031DB72AB82ABE2A831203134E08FB00BC
:100578007B08FD007D08031DC22AC32AC52A003056
:10058800032B7A08FB007B08F3007D080A128A1106
:1005980054240A128A117308FC007C08FD077D08A0
:1005A800840083130008031DDA2ADB2AE02A831259
:1005B8000313CE010030032B7A08FB007B08F300FD
:1005C8007D080A128A1183240A128A1173087D078A
:1005D800FC007C0883120313CE004E0884008313AA
:1005E80000080319F82AF92A012B4E088400800113
:1005F8000130FB007B08CE07022BCE017D080800E6
:100608008316031386140611831203134608B700D2
:100618004508B6004408B5004308B4000130BB00E3
:100628003130BA002D30B9000030B8000A128A11F2
:1006380015220A128A11831203133708CA003608D2
:10064800C9003508C8003408C7000030B7000030BA
:10065800B6000030B5004030B4004A08BB00490875
:10066800BA004808B9004708B8000A128A111522CA
:100678000A128A11831203133408FF3E83160313E8
:10068800990083120313981783160313181218136B
:100698009816831203131813181698170800831650
:1006A8000313880183120313880183160313860139
:1006B8008312031386010030C6000030C5002530C0
:1006C800C4008030C3000A128A1104230A128A1156
:1006D8000A128A11CF250A128A110A128A119A253A
:1006E8000A128A118312031306141A30831603138D
:1006F800A2005E30A1006D30A000A00B812BA10BE1
:10070800812BA20B812B882B8312031306101A301E
:1007180083160313A2005E30A1006D30A000A00B69
:10072800932BA10B932BA20B932B9A2B762B0A12AC
:100738008A111228F501F601700871040319A52B16
:10074800A62BDD2BF701F70AB42B01300310F00DAF
:10075800F10DFF3E031DAA2B0130F4007408F707C2
:10076800F11FB72BB82BA92B01300310F50DF60D8F
:10077800FF3E031DB92B71087302031DC52B7008BA
:100788007202031CC82BC92BD02B7008F202710807
:10079800031CF303F302751401300310F10CF00C81
:1007A800FF3E031DD12B0130F702031DDC2BDD2B8F
:1007B800B82B7608F1007508F0000800780879046D
:1007C8000319E72BE82B172CFD01FD0AF62B013046
:1007D8000310F80DF90DFF3E031DEC2B0130FC0052
:1007E8007C08FD07F91FF92BFA2BEB2B79087B0204
:1007F800031D002C78087A02031C032C042C0A2CF5
:100808007808FA027908031CFB03FB020130031085
:10081800F90CF80CFF3E031D0B2C0130FD02031DE3
:10082800162C172CFA2B7B08F9007A08F800080018
:1008380083120313A400A201A3011830A00020080A
:10084800FA0024080A128A11B2220A128A118312A3
:100858000313A1002108A5004E2C2508A00022089A
:100868004B3E84002008831380001830A000200825
:10087800FA0000300A128A11B2220A128A1183126F
:100888000313A1002108A5000130A2070318A30A39
:100898000030A3072508031D522C532C312C0800C7
:1008A800F900F701F801622C0130F5007508F90725
:1008B8000130F7070318F80A0030F80779088400B0
:1008C800831300080319692C6A2C7E2C790884008C
:1008D8000008F500F6017508F0007608F1007308C5
:1008E8000A128A110A250A128A11003A031D7D2C60
:1008F8007E2C582C7808F4007708F3000800F900DB
:10090800F701F801912C0130F5007508F90701305D
:10091800F7070318F80A0030F807790884008313EA
:1009280000080319982C992CAD2C7908840000082C
:10093800F500F6017508F0007608F10073080A1250
:100948008A110A250A128A11003A0319AC2CAD2C17
:10095800872C7808F4007708F3000800F600BC2C10
:100968000130F2007208F6070130F2007208F00751
:10097800700884000A128A112A250A128A11F200C4
:100988007608840083130008F30072087302F400E9
:100998007408F5007508031DD22CD32CDA2C7608C0
:1009A80084000008031DD92CDA2CB42C7508F0003B
:1009B800F101F01BF1030800F200F3010A128A1199
:1009C800D8250A128A11F00073087207F10071081D
:1009D800840070088313800073087207F0007008A1
:1009E80084000008F1007108F4000130F00070087C
:1009F800F3070A3074060319022D032D092D0D3053
:100A08007406031D082D092DE22C0800F200720857
:100A180084000A128A112A250A128A117006031DF7
:100A2800162D172D192D7208292D0130F207FF30C8
:100A3800720784000A128A112A250A128A11003ABA
:100A4800031D272D282D0B2D0030080005308A00A6
:100A58000408840A82070034013400340A3400345C
:100A680064340034E83403341034273425346434CF
:100A78000A3400345034313400344D3432340034C4
:100A88005034323400342C340034F200572D7208BC
:100A9800840000080A128A11C3250A128A1101303B
:100AA800F1007108F2077208840083130008031D1F
:100AB8005E2D5F2D4B2D08000A128A11B6250A12E9
:100AC8008A1183160313911591196B2D6C2D682DBE
:100AD800141C6F2D702D6C2D83120313130808003E
:100AE800F0000A128A11B6250A128A1170088312B8
:100AF800031393008316031314080539031D852D6A
:100B0800862D7E2D08000A128A11B6250A128A112E
:100B18008316031311141118922D932D8F2D831200
:100B28008C1D972D982D932D8C1108008316031377
:100B380087150716093093008030940091012830FA
:100B48008312031394000800831603131115111957
:100B5800AE2DAF2DAB2D83128C1DB32DB42DAF2D23
:100B68008C1108008316031311081F39031DBD2DAE
:100B7800BE2DB62D1419C12DC22DB62D0800F000BA
:100B8800700883120313990083160313981CCD2D44
:100B9800CE2DC82D0800831203138C12831603135D
:100BA8008C160B178B170800831203138C1EDD2D70
:080BB800DE2DD82D1A080800FB
:04400E00F23FFF3F3F
:00000001FF
