:020000040000FA
:060000000A128A11FC2F18
:100E24008316031311081F39031D192F1A2F122FAC
:100E340014191D2F1E2F122F0800831603131115CA
:100E44001119252F262F222F83128C1D2A2F2B2F89
:100E5400262F8C11080083160313871507160930F3
:100E6400930080309400910128308312031394007E
:100E740008000A128A1112270A128A118316031310
:100E840011141118462F472F432F83128C1D4B2FFB
:100E94004C2F472F8C110800F0000A128A111227D8
:100EA4000A128A1170088312031393008316031322
:100EB40014080539031D5F2F602F582F08000A12EC
:100EC4008A1112270A128A11831603139115911994
:100ED4006C2F6D2F692F141C702F712F6D2F83129F
:100EE40003131308080083160313860183120313E4
:100EF40086018316031388018312031388010A12DF
:100F04008A112D270A128A110830F7009D30F60045
:100F14000530F500F50B8C2FF60B8C2FF70B8C2F6F
:100F2400932FF801F90178080A128A11B2270A12DC
:100F34008A110130F8070318F90A0030F907790813
:100F4400803AFF0080307F02031DAA2FFF30780211
:100F5400031CAD2FAE2F952F932F0A128A11002850
:100F6400F4000330F3008A30F2005530F100F10B45
:100F7400B92FF20BB92FF30BB92FC02F0330F300A5
:100F84008A30F2005530F100F10BC62FF20BC62F58
:100F9400F30BC62FCD2F0A128A113B270A128A118E
:100FA40030300A128A114E270A128A1174080A1262
:100FB4008A114E270A128A110A128A111F270A124D
:100FC4008A110A128A113B270A128A1131300A1235
:100FD4008A114E270A128A110A128A1161270A12EB
:100FE4008A118312031386000A128A111F270A1218
:0C0FF4008A11080083010A128A11752F6F
:04400E00F43FFF3F3D
:00000001FF
