:060000000A128A11122809
:10000800FE00030E83120313B1000408B2000A08AD
:10001800B3007F08B4000A128A1122280A128A1132
:1000280015288313483084005A300A128A1134265E
:100038000A128A1183010A128A11A62B8B13203007
:100048000A128A1116260A128A1150300A128A11C7
:1000580033250A128A1150300A128A116F240A12A3
:100068008A11153083120313AD002D08F0004808DB
:100078000A128A1105250A128A1170087104031DD3
:100088004628472851290F3083120313AD002D0845
:10009800F00049080A128A1105250A128A11700807
:1000A8007104031D58285928CE28831203134A08BF
:1000B8008400613083130006031D63286428B22876
:1000C8000A128A11DA250A128A1131300A128A11A3
:1000D800C7250A128A110A128A11B3250A128A112F
:1000E80083120313AD002D08CD000A128A112B26A6
:1000F8000A128A110A128A11B3250A128A11831266
:100108000313AD002D08CE000A128A11FB250A122E
:100118008A11831203134E08AD00AE012D08AE00FC
:10012800AD014D082D07CB000030031801302E0714
:10013800CC000B30AD002D08A0004C08A2004B08E5
:10014800A10050300A128A1160210A128A11503017
:100158000A128A119C250A128A1151290A128A1137
:10016800DA250A128A1130300A128A11C7250A12B2
:100178008A11831203134A088400831300080A12A1
:100188008A11C7250A128A110A128A11FB250A1236
:100198008A115129123083120313AD002D08F00083
:1001A80049080A128A1105250A128A117008710471
:1001B800031DDF28E0285129831203134A0884000D
:1001C800613083130006031DEA28EB283A290A1236
:1001D8008A11DA250A128A1133300A128A11C725C0
:1001E8000A128A110A128A11B3250A128A11831275
:1001F8000313AD002D08CD000A128A112B260A120E
:100208008A110A128A11B3250A128A11831203135A
:10021800AD002D08CE000A128A11FB250A128A1198
:10022800831203134D08AD00AE014E08AF00B001B4
:100238002F08B000AF012D082F04CB002E08300482
:10024800CC000B30AD002D08A0004C08A2004B08D4
:10025800A10050300A128A1160210A128A11503006
:100268000A128A119C250A128A1151290A128A1126
:10027800DA250A128A1132300A128A11C7250A129F
:100288008A11831203134A088400831300080A1290
:100298008A11C7250A128A11C828831203138C12DF
:1002A8008B173408FF0033088A0032088400310EA7
:1002B8008300FE0E7E0E090083120313AB0021306B
:1002C800A3002308A600312A25302C0603196D291E
:1002D8006E297A292C08A3002B088400230883138D
:1002E80080000130A3002308AB07312AA7010130A1
:1002F800A007FF30200784000A128A117D250A1200
:100308008A11AC00A300A4012408003A03198D291E
:10031800312A2308003A0319432A643A0319982911
:100328000D3A03199829312A2608840083130008F6
:10033800A900840A0008AA000230A3002308A6071F
:10034800AA1FA729A829B1290330A3002308A704B5
:10035800A909AA09A90A0319AA0AAC01AC0A2C0816
:10036800A3002307013E84000A128A117D250A1280
:100378008A11A4000A128A117D250A128A11A50081
:1003880025082A02031DCA29240829020318CD2991
:10039800CE29CF29D9290130A3002308AC0705307D
:1003A8002C06031DD829D929B3292708033903198D
:1003B800DE29DF29EA292D30A3002B088400230831
:1003C800831380000130A3002308AB072C08A30087
:1003D8002308A800282A0A30F8000030F900280865
:1003E800A3002307013E84000A128A117D250A1200
:1003F8008A11F0000A128A117D250A128A11F10069
:100408002A08F3002908F2000A128A11F1230A12B5
:100418008A117108FB007008FA000A128A11352443
:100428000A128A117808303E83120313A4002408A4
:10043800AC002C08A3002B08840023088313800039
:100448000130A3002308AB07FF30A3002308A80747
:10045800280A031D302A312AEF290130A007FF306E
:10046800200784000A128A117D250A128A11A30026
:100478002308AC002C08031D422A432A68292B08AC
:10048800840083138001080083120313BF01B81F7F
:100498004E2A4F2A5C2AB509B609B709B809B50A20
:1004A8000319B60A0319B70A0319B80ABF01BF0A24
:1004B800BC1F5F2A602A6F2AB909BA09BB09BC099F
:1004C800B90A0319BA0A0319BB0A0319BC0A01308D
:1004D800BD003D08BF060030C3000030C200003038
:1004E800C1000030C0003808370436043504031949
:1004F8007E2A7F2ACC2ABE01BE0A8F2A0130BD007F
:100508000310B50DB60DB70DB80DBD0B842A01301B
:10051800BD003D08BE07B81F922A932A822A0130DF
:10052800BD000310C00DC10DC20DC30DBD0B952A32
:1005380038083C02031DAA2A37083B02031DAA2AD1
:1005480036083A02031DAA2A35083902031CAD2AC7
:10055800AE2ABD2A3508B9023608031C360FBA027E
:100568003708031C370FBB023808031C380FBC02BE
:10057800401401300310B80CB70CB60CB50CFF3E94
:10058800031DBE2A0130BE02031DCB2ACC2A932AA2
:100598003F080319D02AD12ADC2AC009C109C20997
:1005A800C309C00A0319C10A0319C20A0319C30AF5
:1005B8004308B8004208B7004108B6004008B50033
:1005C80008008316031386140611831203134708C1
:1005D800B8004608B7004508B6004408B500013021
:1005E800BC003130BB002D30BA000030B9000A120F
:1005F8008A1148220A128A118312031338088316B3
:100608000313A30083120313370883160313A200EE
:1006180083120313360883160313A10083120313EE
:10062800350883160313A000003083120313B800A3
:100638000030B7000030B6004030B5008316031311
:10064800230883120313BC008316031322088312A2
:100658000313BB0083160313210883120313BA0084
:1006680083160313200883120313B9000A128A1190
:1006780048220A128A11831203133508FF3E831693
:100688000313990083120313981783160313181280
:1006980018139816831203131813181698170800BE
:1006A800FD007D08031D592B5A2B602B8312031361
:1006B8004F08FB007B08FD007D08031D642B652B9C
:1006C800672B0030A52B7A08FB007B08F3007D0818
:1006D8000A128A11A7240A128A117308FC007C08DE
:1006E800FD077D08840083130008031D7C2B7D2BE8
:1006F800822B83120313CF010030A52B7A08FB004D
:100708007B08F3007D080A128A11D6240A128A117E
:1007180073087D07FC007C0883120313CF004F0881
:1007280084008313000803199A2B9B2BA32B4F08D3
:10073800840080010130FB007B08CF07A42BCF0188
:100748007D080800831603138801831203138801A8
:100758008316031386018312031386010030C70032
:100768000030C6002530C5008030C4000A128A1146
:10077800E5220A128A110A128A1122260A128A11FD
:100788000A128A11ED250A128A118312031306141C
:100798001A3083160313A6005E30A5006D30A4003E
:1007A800A40BD42BA50BD42BA60BD42BDB2B831299
:1007B800031306101A3083160313A6005E30A50033
:1007C8006D30A400A40BE62BA50BE62BA60BE62B9D
:1007D800ED2BC92B0A128A111228F501F6017008AF
:1007E80071040319F82BF92B302CF701F70A072CA1
:1007F80001300310F00DF10DFF3E031DFD2B0130FC
:10080800F4007408F707F11F0A2C0B2CFC2B01309D
:100818000310F50DF60DFF3E031D0C2C7108730235
:10082800031D182C70087202031C1B2C1C2C232C73
:100838007008F2027108031CF303F3027514013007
:100848000310F10CF00CFF3E031D242C0130F702BD
:10085800031D2F2C302C0B2C7608F1007508F000A6
:1008680008007808790403193A2C3B2C6A2CFD01FE
:10087800FD0A492C01300310F80DF90DFF3E031D48
:100888003F2C0130FC007C08FD07F91F4C2C4D2C37
:100898003E2C79087B02031D532C78087A02031C2E
:1008A800562C572C5D2C7808FA027908031CFB0398
:1008B800FB0201300310F90CF80CFF3E031D5E2CFF
:1008C8000130FD02031D692C6A2C4D2C7B08F900B0
:1008D8007A08F800080083120313A400A201A301F8
:1008E8001830A0002008FA0024080A128A1154239C
:1008F8000A128A1183120313A1002108A500A12C52
:100908002508A0002208483E8400200883138000A0
:100918001830A0002008FA0000300A128A11542367
:100928000A128A1183120313A1002108A5000130BD
:10093800A2070318A30A0030A3072508031DA52C46
:10094800A62C842C0800F900F701F801B52C013019
:10095800F5007508F9070130F7070318F80A0030A1
:10096800F80779088400831300080319BC2CBD2CF0
:10097800D12C790884000008F500F6017508F0000C
:100988007608F10073080A128A115D250A128A1185
:10099800003A031DD02CD12CAB2C7808F400770832
:1009A800F3000800F900F701F801E42C0130F50024
:1009B8007508F9070130F7070318F80A0030F80737
:1009C80079088400831300080319EB2CEC2C002D04
:1009D800790884000008F500F6017508F00076082B
:1009E800F10073080A128A115D250A128A11003A69
:1009F8000319FF2C002DDA2C7808F4007708F3008F
:100A08000800F6000F2D0130F2007208F6070130D9
:100A1800F2007208F007700884000A128A117D2516
:100A28000A128A11F2007608840083130008F30082
:100A380072087302F4007408F5007508031D252D6B
:100A4800262D2D2D760884000008031D2C2D2D2D14
:100A5800072D7508F000F101F01BF1030800F20002
:100A6800F3010A128A113C260A128A11F00073084F
:100A78007207F100710884007008831380007308FE
:100A88007207F000700884000008F1007108F40093
:100A98000130F0007008F3070A3074060319552D69
:100AA800562D5C2D0D307406031D5B2D5C2D352DE8
:100AB8000800F200720884000A128A117D250A12C1
:100AC8008A117006031D692D6A2D6C2D72087C2D04
:100AD8000130F207FF30720784000A128A117D255F
:100AE8000A128A11003A031D7A2D7B2D5E2D0030E3
:100AF800080005308A000408840A8207003401349B
:100B080000340A34003464340034E83403341034D4
:100B18002734253464340A340034503431340034F2
:100B28005034323400344D34333400342C340034EF
:100B3800F200AA2D7208840000080A128A111626EB
:100B48000A128A110130F1007108F2077208840054
:100B580083130008031DB12DB22D9E2D08000A1223
:100B68008A1109260A128A118316031391159119FD
:100B7800BE2DBF2DBB2D141CC22DC32DBF2D83121E
:100B8800031313080800F0000A128A1109260A1232
:100B98008A11700883120313930083160313140831
:100BA8000539031DD82DD92DD12D08000A128A1117
:100BB80009260A128A118316031311141118E52D38
:100BC800E62DE22D83128C1DEA2DEB2DE62D8C11DE
:100BD8000800831603138715071609309300803021
:100BE800940091012830831203139400080083169F
:100BF800031311151119012E022EFE2D83128C1DBF
:100C0800062E072E022E8C110800831603131108D6
:100C18001F39031D102E112E092E1419142E152EEE
:100C2800092E0800F0007008831203139900831638
:100C38000313981C202E212E1B2E08008312031349
:100C48008C12831603138C160B178B170800831648
:100C5800031391121116111A322E332E2F2E08005B
:100C680064008001840A0406031900340406352E42
:100C7800831203138C1E412E422E3C2E1A080800A4
:04400E00F23FFF3F3F
:00000001FF
