:1000000083177D3084007E308A110A208A11830193
:100010008A11122864008001840A0406031900343E
:1000200004060B2803108312031700300318013055
:100030009E0003100030031801309F0003100030B1
:1000400003180130990003100030031801309A00A2
:1000500003108316031300300318013085000310CA
:1000600000300318013087008A111B278A116F287E
:100070008A11D5278A1100308A11E4278A110310CA
:1000800083120313003003180130FD0047287D0858
:10009000303E8A11EE278A11FA30F5000030F60062
:1000A0008A11AC278A11831203137D08013EF000E8
:1000B0007008FD000A307D02031C5F286028472875
:1000C00040308A11E4278A1101308A1192278A115F
:1000D000E830F5000330F6008A11AC278A11382881
:0400E0008A11002859
:100E0000FE00FE1F082F83137E18831700080800BA
:100E10000408FE0007308A007E0882070034483448
:100E200065346C346C346F34203457346F3472341E
:100E30006C34643400340310831203170030031839
:100E400001309E000330F1000310831603130030BD
:100E500003180130850003100030031801308700AB
:100E6000831203130511851005120F30F5000030B1
:100E7000F6008A11AC278A1103308312031387000E
:100E8000851485100A30F5000030F6008A11AC2771
:100E90008A1183120313851485100A30F50000307F
:100EA000F6008A11AC278A1183120313851485106A
:100EB0000A30F5000030F6008A11AC278A110230A2
:100EC0008312031387008514851028308A11752733
:100ED0008A110F308A1175278A118A11D5278A1134
:100EE00006308A1175278A110800F3000130F500D9
:100EF0000030F6008A11AC278A117308F400043020
:100F00000310F40CFF3E031D802F74080F39831269
:100F1000031387008514851073080F398700851423
:100F200085100800F100831203130515A22F710824
:100F30008A1109278A118A1175278A110130F20056
:100F40007208F10771088A1109278A110038031DF8
:100F5000AA2FAB2F972F08000030F7000030F800C1
:100F6000BA2F8A11C5278A110130F7070318F80A2A
:100F70000030F80778087602031DC02F7708750245
:100F80000318C32FC42FB12F080083160313810148
:100F90000314810D0D30831203138100CF2F0B1D1D
:100FA000D22FD32FCF2F0B1108008312031305115B
:100FB00001308A1175278A110230F5000030F600E1
:100FC0008A11AC278A110800F1008312031305115E
:100FD0007108803E8A1175278A110800F1000515F5
:0A0FE00071088A1175278A110800B4
:02400E00D43F9D
:00000001FF
