:020000040000FA
:100000000A128A11EB2F00308A000408840A820742
:100010000034013400340A34003464340034E834E9
:1000200003341034273454343A34203425346434BF
:100030002C34203448343A34253464340A340034BF
:1009060083160313081083120313081408008316B2
:1009160003130814831203130810080064008001EF
:10092600840A0406031900340406922CF0007008A9
:1009360083120313990083160313981CA32CA42C6B
:100946009E2C0800831203130818AA2CAB2CA52C86
:10095600081CAE2CAF2CAB2C0818B22CB32CAF2C29
:100966000800F100C22C7108840000080A128A11DE
:1009760099240A128A110130FF007F08F1077108D5
:10098600840083130008031DC92CCA2CB62C08004A
:100996000A128A1183240A128A1183120313081079
:1009A6002F30F100BF30F000F00BD72CF10BD72C15
:1009B600DC2C8312031308140A128A118A240A12E1
:1009C6008A1108008316031388010030831203136B
:1009D600A9000030A8002530A7008030A6000A1222
:1009E6008A11C0250A128A110A128A110B260A12C6
:1009F6008A110B3083120313BC002630BB005D3016
:100A0600BA00BA0B042DBB0B042DBC0B042DF72C1E
:100A16000A128A110028F101F20183120313081C3D
:100A2600152D162D102D2130F000F00B182D8312E8
:100A36000313081C1F2D202D232D0314F30D292D20
:100A46007308F0007007FF007F08F30008182C2DCC
:100A56002D2D292D0130F1070318F20A0030F20777
:100A66007208803AFF0080307F02031D3C2D08305B
:100A76007102031C3F2D402D102D730808007708C6
:100A860078040319472D482D772DFB01FB0A562DB7
:100A960001300310F70DF80DFF3E031D4C2D0130FC
:100AA600FF007F08FB07F81F592D5A2D4B2D78089C
:100AB6007A02031D602D77087902031C632D642DCD
:100AC6006A2D7708F9027808031CFA03FA02013046
:100AD6000310F80CF70CFF3E031D6B2D0130FB02D3
:100AE600031D762D772D5A2D7A08F8007908F70020
:100AF6000800F401F501700871040319832D842D93
:100B0600BB2DF601F60A922D01300310F00DF10D02
:100B1600FF3E031D882D0130FF007F08F607F11FF9
:100B2600952D962D872D01300310F40DF50DFF3E02
:100B3600031D972D71087302031DA32D7008720201
:100B4600031CA62DA72DAE2D7008F2027108031CFA
:100B5600F303F302741401300310F10CF00CFF3EA2
:100B6600031DAF2D0130F602031DBA2DBB2D962DA8
:100B76007508F1007408F0000800831603130713C4
:100B86008717831203132908F3002808F2002708A1
:100B9600F1002608F0000030F7007A30F600123037
:100BA600F5000030F4000A128A1166260A128A112C
:100BB6007308FC007208FB007108FA007008F9005F
:100BC6000030F3000030F2000030F1004030F00059
:100BD6007C08F7007B08F6007A08F5007908F4002F
:100BE6000A128A1166260A128A117008FF3E8316B7
:100BF60003139900181118128312031398178316FA
:100C060003131813981683120313181318160800E3
:100C16000A128A11CB240A128A110A128A11A524F1
:100C26000A128A110A128A110E250A128A11FF0067
:100C36007F0883120313B9000A128A110E250A12BD
:100C46008A11FF007F0883120313B4000A128A1167
:100C56000E250A128A11FF007F0883120313B800BB
:100C66000A128A110E250A128A11FF007F088312C2
:100C76000313B6000A128A110E250A128A11FF0002
:100C86007F0883120313B7000B30FF007F08A00014
:100C96003908AF00B0012F08A1003008A2003808BB
:100CA600B100B2013108A3003208A4003D300A1297
:100CB6008A1103270A128A113D300A128A11B424B6
:100CC6000A128A11080083120313A101F31F6C2E66
:100CD6006D2E7A2EF009F109F209F309F00A0319CB
:100CE600F10A0319F20A0319F30AA101A10AF71F6F
:100CF6007D2E7E2E8D2EF409F509F609F709F40AE4
:100D06000319F50A0319F60A0319F70A0130FF0059
:100D16007F08A1060030A5000030A4000030A30023
:100D26000030A200730872047104700403199C2E2B
:100D36009D2EEA2EA001A00AAD2E0130F800031068
:100D4600F00DF10DF20DF30DF80BA22E0130FF00A0
:100D56007F08A007F31FB02EB12EA02E0130F80099
:100D66000310A20DA30DA40DA50DF80BB32E730849
:100D76007702031DC82E72087602031DC82E71085D
:100D86007502031DC82E70087402031CCB2ECC2ED0
:100D9600DB2E7008F4027108031C710FF50272084D
:100DA600031C720FF6027308031C730FF70222145A
:100DB60001300310F30CF20CF10CF00CFF3E031D96
:100DC600DC2E0130A002031DE92EEA2EB12E2108E9
:100DD6000319EE2EEF2EFA2EA209A309A409A509DE
:100DE600A20A0319A30A0319A40A0319A50A2508C6
:100DF600F3002408F2002308F1002208F00008009E
:100E060083120313AD002130FF007F08A800D42F02
:100E160025302E060319102F112F1D2F2E08FF0027
:100E26002D0884007F08831380000130FF007F08AF
:100E3600AD07D42FA9010130A007FF302007840099
:100E46000A128A1103200A128A11AE00A500A60111
:100E56002608003A0319302FD42F2508003A031923
:100E6600E62F643A03193B2F0D3A03193B2FD42F73
:100E76002808840083130008AB00840A0008AC002D
:100E86000230FF007F08A807AC1F4A2F4B2F542FB4
:100E96000330FF007F08A904AB09AC09AB0A0319AC
:100EA600AC0AAE01AE0A2E08A5002507013E840055
:100EB6000A128A1103200A128A11A6000A128A113E
:100EC60003200A128A11A70027082C02031D6D2F82
:100ED60026082B020318702F712F722F7C2F0130DA
:100EE600FF007F08AE0705302E06031D7B2F7C2FE3
:100EF600562F290803390319812F822F8D2F2D3064
:100F0600FF002D0884007F08831380000130FF0056
:100F16007F08AD072E08FF007F08AA00CB2F0A30F6
:100F2600F7000030F8002A08A5002507013E8400D6
:100F36000A128A1103200A128A11F0000A128A1173
:100F460003200A128A11F1002C08F3002B08F20084
:100F56000A128A117C250A128A117108FA00700891
:100F6600F9000A128A1142250A128A117708303EC0
:100F7600FF007F0883120313AE002E08FF002D0822
:100F860084007F08831380000130FF007F08AD07CF
:100F9600FF30FF007F08AA072A0A031DD32FD42F8C
:100FA600922F0130A007FF30200784000A128A1111
:100FB60003200A128A11FF007F08AE002E08031DC7
:100FC600E52FE62F0B2F2D088400831380010800E0
:100FD60083133D30840051300A128A1191240A127B
:100FE6008A11A0308400C8300A128A1191240A128C
:0A0FF6008A1183010A128A11E52C0A
:04400E00F22FFF3F4F
:00000001FF
