:020000040000FA
:060000000A128A11FC2F18
:100D5A00F000700883120313990083160313981C7A
:100D6A00B72EB82EB22E08008312031308140B30C4
:100D7A00F2002630F1005D30F000F00BC22EF10BCC
:100D8A00C22EF20BC22EC92E8312031308100B3087
:100D9A00F2002630F1005D30F000F00BD22EF10B9C
:100DAA00D22EF20BD22ED92E0800831603138801F5
:100DBA00003083120313A9000030A8002530A700D1
:100DCA008030A6000A128A1114270A128A11831285
:100DDA000313AA01AB010A128A11B9260A128A114F
:100DEA0048300A128A11AD260A128A11013083127A
:100DFA000313AA070318AB0A0030AB072B08803A83
:100E0A00FF0080307F02031D0C2FFF302A02031CD3
:100E1A000F2F102FF02EEC2E0A128A11002883169B
:100E2A00031307138717831203132908F3002808EB
:100E3A00F2002708F1002608F0000030F7007A30A7
:100E4A00F6001230F5000030F4000A128A115F270A
:100E5A000A128A117308FC007208FB007108FA0072
:100E6A007008F9000030F3000030F2000030F100A1
:100E7A004030F0007C08F7007B08F6007A08F5009D
:100E8A007908F4000A128A115F270A128A11700877
:100E9A00FF3E8316031399001811181283120313C5
:100EAA00981783160313181398168312031318132B
:100EBA001816080083120313A101F31F652F662F6A
:100ECA00732FF009F109F209F309F00A0319F10A7B
:100EDA000319F20A0319F30AA101A10AF71F762FCF
:100EEA00772F862FF409F509F609F709F40A031989
:100EFA00F50A0319F60A0319F70A0130FF007F08F9
:100F0A00A1060030A5000030A4000030A300003084
:100F1A00A20073087204710470040319952F962FA6
:100F2A00E32FA001A00AA62F0130F8000310F00D4C
:100F3A00F10DF20DF30DF80B9B2F0130FF007F0826
:100F4A00A007F31FA92FAA2F992F0130F800031029
:100F5A00A20DA30DA40DA50DF80BAC2F73087702F3
:100F6A00031DC12F72087602031DC12F7108750275
:100F7A00031DC12F70087402031CC42FC52FD42F60
:100F8A007008F4027108031C710FF5027208031C41
:100F9A00720FF6027308031C730FF7022214013052
:100FAA000310F30CF20CF10CF00CFF3E031DD52FCD
:100FBA000130A002031DE22FE32FAA2F21080319F3
:100FCA00E72FE82FF32FA209A309A409A509A20A6A
:100FDA000319A30A0319A40A0319A50A2508F30089
:100FEA002408F2002308F1002208F0000800830117
:060FFA000A128A11DA2E32
:04400E00F22FFF3F4F
:00000001FF
