:020000040000FA
:060000000A128A1110280B
:10000800FE00030EF0000A08F100831203137F08B4
:10001800F2000A128A1154290A128A111328FA01C5
:1000280083120313B001B101B201B30183010A12B3
:100038008A111229F50183120313A31F24282528E6
:100048003228A009A109A209A309A00A0319A10A33
:100058000319A20A0319A30AF501F50AA71F3528EF
:1000680036284528A409A509A609A709A40A031939
:10007800A50A0319A60A0319A70A0130FF007F0879
:10008800F5060030F9000030F8000030F7000030C5
:10009800F6002308220421042004031954285528B3
:1000A800A228F401F40A65280130F3000310A00D1A
:1000B800A10DA20DA30DF30B5A280130FF007F08F4
:1000C800F407A31F6828692858280130F300031093
:1000D800F60DF70DF80DF90DF30B6B282308270221
:1000E800031D802822082602031D802821082502D6
:1000F800031D802820082402031C832884289328B1
:100108002008A4022108031C210FA5022208031CB1
:10011800220FA6022308031C230FA702761401301E
:100128000310A30CA20CA10CA00CFF3E031D9428E5
:100138000130F402031DA128A228692875080319B3
:10014800A628A728B228F609F709F809F909F60A2E
:100158000319F70A0319F80A0319F90A7908A30019
:100168007808A2007708A1007608A0000800831686
:10017800031307138717831203132B08A3002A08F6
:10018800A2002908A1002808A0000130A7003130EA
:10019800A6002D30A5000030A4000A128A111E20E6
:1001A8000A128A11831203132308AF002208AE0033
:1001B8002108AD002008AC000030A3000030A200E8
:1001C8000030A1004030A0002F08A7002E08A6008C
:1001D8002D08A5002C08A4000A128A111E200A1254
:1001E8008A11831203132008FF3E83160313990014
:1001F8001811181283120313981783160313181370
:1002080098168312031318131816831603138C16E3
:10021800831203138C120B178B170800831603170E
:100228008901831603138601880183120313880149
:1002380086010030AB000030AA002530A9008030CC
:10024800A8000A128A11BB200A128A110A128A11FE
:1002580033210A128A112A290A128A1110288312B4
:10026800031306140330F5008A30F4005530F30008
:10027800F30B3C29F40B3C29F50B3C294329831249
:10028800031306100330F5008A30F4005530F300EC
:10029800F30B4C29F40B4C29F50B4C295329080076
:1002A800FA018B130A128A116D210A128A11FF00B2
:1002B8007F08FA007A088312031388008C128B17C0
:1002C8007208FF0071088A00700E8300FE0E7E0E11
:0A02D8000900831203131A0808003E
:04400E00F23FFF3F3F
:00000001FF
